:020000040800F2
:1000000000550024F9030008633500083B3200085E
:100010006135000843060008BB49000800000000E5
:10002000000000000000000000000000390300088C
:10003000450600080000000095030008CD410008B7
:100040001304000813040008130400081304000834
:100050001304000813040008130400081304000824
:100060001304000813040008130400081304000814
:100070001304000813040008130400081304000804
:1000800013040008130400081304000813040008F4
:1000900013040008130400081304000813040008E4
:1000A00013040008130400081304000813040008D4
:1000B000B5430008130400081304000813040008E3
:1000C00013040008130400081304000813040008B4
:1000D00013040008130400081304000813040008A4
:1000E00013040008130400080000000013040008B3
:1000F0001304000813040008130400081304000884
:100100001304000813040008130400081304000873
:100110001304000813040008130400081304000863
:100120001304000813040008130400081304000853
:100130001304000813040008130400081304000843
:1001400000000000000000000000000000000000AF
:100150001304000813040008130400081304000823
:100160001304000813040008130400081304000813
:100170001304000813040008130400080000000022
:1001800013040008130400081304000813040008F3
:1001900013040008130400081304000813040008E3
:1001A00013040008130400081304000813040008D3
:1001B00013040008130400081304000813040008C3
:1001C00013040008130400081304000813040008B3
:1001D00013040008130400081304000813040008A3
:1001E0001304000813040008130400081304000893
:1001F0001304000813040008130400081304000883
:100200001304000813040008130400081304000872
:100210001304000813040008130400081304000862
:100220001304000813040008130400080000000071
:100230001304000813040008000000001304000861
:100240001304000813040008130400081304000832
:100250001304000813040008130400081304000822
:100260001304000813040008130400081304000812
:100270001304000813040008130400080000000021
:100280001304000813040008130400080000000011
:10029000000000001304000800F002F800F03CF831
:1002A0000AA090E8000C82448344AAF10107DA45D1
:1002B00001D100F031F8AFF2090EBAE80F0013F0E7
:1002C000010F18BFFB1A43F0010318478C5F0000B1
:1002D000AC5F0000103A24BF78C878C1FAD8520742
:1002E00024BF30C830C144BF04680C6070470000B0
:1002F0000023002400250026103A28BF78C1FBD82F
:10030000520728BF30C148BF0B6070471FB505F0CA
:100310007DFF1FBD10B510BD00F059F91146FFF764
:10032000F5FF04F05CFB00F077F903B4FFF7F2FF90
:1003300003BC00F07FF900002C4B19680868B0E896
:10034000F04F80F30988BFF36F8F4FF0000080F308
:10035000118870470000000008480068006880F3BA
:1003600008884FF0000080F3148862B661B6BFF3CE
:100370004F8FBFF36F8F00DF00BF00BF08ED00E0BD
:10038000DFF80C00016841F470010160704700BFA4
:1003900088ED00E0EFF30980BFF36F8F134B1A680D
:1003A0001EF0100F08BF20ED108A20E9F04F1060FA
:1003B00009B44FF0500080F31188BFF34F8FBFF3A3
:1003C0006F8F05F005FA4FF0000080F3118809BC2B
:1003D00019680868B0E8F04F1EF0100F08BFB0ECC5
:1003E000108A80F30988BFF36F8F704718000024CC
:1003F000EFF305807047000009488047094800472F
:10040000FEE7FEE7FEE7FEE7FEE7FEE7FEE7FEE7C4
:10041000FEE7FEE704480549054A064B7047000021
:10042000D142000899020008004F00240055002422
:100430000051002400510024032A40F2308010F0C3
:10044000030C00F0158011F8013BBCF1020F62446F
:1004500098BF11F801CB00F8013B38BF11F8013B00
:10046000A2F1040298BF00F801CB38BF00F8013BAD
:1004700011F0030300F02580083AC0F0088051F81D
:10048000043B083A51F804CBA0E80810F5E7121D28
:100490005CBF51F8043B40F8043BAFF30080D20747
:1004A00024BF11F8013B11F801CB48BF11F8012B13
:1004B00024BF00F8013B00F801CB48BF00F8012B36
:1004C000704710B5203AC0F00B80B1E81850203AC0
:1004D000A0E81850B1E81850A0E81850BFF4F5AFE4
:1004E0005FEA027C24BFB1E81850A0E8185044BF6E
:1004F00018C918C0BDE810405FEA827C24BF51F8DB
:10050000043B40F8043B08BF7047D20728BF31F8CE
:10051000023B48BF11F8012B28BF20F8023B48BF1F
:1005200000F8012B704702F0FF0343EA032242EA7E
:10053000024200F02CB84FF0000200B5134694467A
:100540009646203922BFA0E80C50A0E80C50B1F12B
:100550002001BFF4F7AF090728BFA0E80C5048BF3F
:100560000CC05DF804EB890028BF40F8042B08BFDD
:10057000704748BF20F8022B11F0804F18BF00F8D9
:10058000012B70477047704770474FF000020429F5
:10059000C0F0128010F0030C3FF4CFAFCCF1040C8C
:1005A000BCF1020F18BF00F8012BA8BF20F8022BE6
:1005B000A1EB0C01FFF7C1BF5FEAC17C24BF00F8CB
:1005C000012B00F8012B48BF00F8012B704775463E
:1005D00000F02CF8AE4605006946534620F00700AF
:1005E000854618B020B5FFF715FFBDE820404FF055
:1005F00000064FF000074FF000084FF0000B21F00D
:100600000701AC46ACE8C009ACE8C009ACE8C009D9
:10061000ACE8C0098D46704710B50446AFF30080C2
:100620002046BDE81040FFF780BE0000004870473C
:100630009C4E002401491820ABBEFEE726000200B4
:100640007047FEE7704772B6FEE7000070B50446DB
:1006500000F032F90546601C02D0044800780444DA
:1006600000F02AF9401BA042FAD370BD0400002418
:100670002DE9FC4F01257E4C00234FF0030A4FF07B
:10068000B04E4FF00F0BEBE005FA03F637403A009F
:1006900077D04F68012F05D0022F03D0112F01D042
:1006A000122F1AD187684FEA4308D1F80CC00AFA12
:1006B00008F927EA09070CFA08FC4CEA070CC0F80D
:1006C00008C0476891F804C0B743CCF3001C0CFA8B
:1006D00003FC4CEA070CC0F804C0C6684FEA430CA0
:1006E000D1F80880E1460AFA0CF7BE43019708FAF0
:1006F00009F848EA0608C0F80C804E68022E01D0BE
:10070000122E12D1DE084FEA437C00EB86060096DB
:100710000F69366A4FEADC6C0BFA0CF807FA0CF733
:1007200026EA08063743009E37620E790768DDF82F
:1007300004C006F0030606FA09F627EA0C073E4352
:1007400006604E68F6001CD54A4E376847F002072F
:10075000376036689F0706F00206009623F003060E
:1007600006F1B046B1463F0FD6F80864DFF80881BD
:100770000BFA07FC404526EA0C0603D14FF0000CAB
:1007800041E06CE0DFF8F4C0604502D14FF0010CAD
:1007900039E0DFF8ECC0604502D14FF0020C32E0E6
:1007A000DFF8E0C0604502D14FF0030C2BE0DFF82A
:1007B000D8C0604502D14FF0040C24E0DFF8CCC073
:1007C000604502D14FF0050C1DE0DFF8C4C0604564
:1007D00002D14FF0060C16E0DFF8B8C0604502D138
:1007E0004FF0070C0FE0DFF8B0C0604502D14FF0CA
:1007F000080C08E0DFF8A4C0604502D14FF0090CF6
:1008000001E04FF00A0C0CFA07FC4CEA060CC9F8A0
:1008100008C426684F6826EA0206FF0300D516437F
:10082000266066684F6826EA0206BF0300D51643B5
:100830006660D1F804C07646DEF800705FEACC2C22
:1008400027EA020700D517433760D1F804C077685C
:100850005FEA8C2C27EA020700D5174377605B1C00
:100860000A681746DA407FF40FAFBDE8FC8F00003E
:1008700080000058F4440258000002580004025856
:1008800000080258000C02580010025800140258C8
:1008900000180258001C0258002002580024025878
:1008A0000AB1816170470904FBE700000148006854
:1008B000000C70470010005C014880687047000021
:1008C0000400002470B504008AB005D094F8B90281
:1008D0000026256818B107E001200AB070BD204647
:1008E00084F8B86200F028F8032084F8B902E86BB5
:1008F000C00500D42661206803F0A4FF04F11001B4
:10090000684628220D46FFF7DCFD94E80F0003F04F
:1009100041FF2068012104F039F828222946684661
:10092000FFF7CFFD94E80F0003F0CAFF012084F821
:10093000B9020020D1E7000010B586B004461421AA
:100940006846FFF7F8FD13492068884220D1124815
:10095000016841F00101016000680A23022200F0F1
:100960000100059000204FF4C05100916946CDE987
:100970000120CDE903030948FFF77AFE064808384D
:10098000016841F000610160006800F000600590BE
:1009900006B010BD00000840E044025800000258B4
:1009A0000248816802781144816070470400002485
:1009B000032010B500F0B0F801F084FA0F4A104996
:1009C00014681368C4F3032203F00F038A5CC95C44
:1009D00002F01F0201F01F01D0400A4A20FA01F183
:1009E000116009490860002000F010F808B10120EA
:1009F00010BD00F051F8002010BD0000184402584E
:100A00003C620008140000241000002410B51028D7
:100A100004468AB02DD2002201461C2000F05CF86A
:100A20001C2000F04BF8184804601848016841F099
:100A300001010160006809A900F001000890684602
:100A400001F0DEF90598B8B101F02AFA400010492A
:100A5000002240F2E733B0FBF1F10E484FF0804442
:100A60000460C0E90332491EC0E9011202F0C8F96E
:100A700028B101200AB010BD01F012FAE7E70548DD
:100A800002F0F0F9F6E7000008000024E8440258FC
:100A900040420F007C050024074882B0016841F005
:100AA00002010160006800220F2100F002000090A6
:100AB000901E02B000F010B8F4440258002809DB80
:100AC000410900F01F028900012001F1E02190405E
:100AD000C1F80001704700000E4BF0B41B680D46D2
:100AE000C3F30223C3F10706042E00D90426191DFF
:100AF000072901D2002300E0DB1E012404FA06F1DD
:100B00009C40491E2940641E994014402143F0BC7A
:100B100003F054BF0CED00E0064900F0070210B5E9
:100B20004FF6FF040868044B204040EA02201843B7
:100B3000086010BD0CED00E00000FA05134970B527
:100B40000A68D243520705D5096801F007018142BE
:100B500013D118E00A6822F0070202430A60FFF787
:100B6000ABFE0A4D4FF47A760446083D07E000BF1D
:100B7000FFF7A2FE001BB04201D9012070BD28681A
:100B8000C0438004F4D4002070BD00000C4802581B
:100B90000248016841F08071016070470C480258BA
:100BA000F8B50446FFF788FE05461CB194F84100ED
:100BB00010B107E00120F8BD204600F047F841F2EF
:100BC0008830A06420686FF0FF02A168036802EB20
:100BD000012223F4706111430160A06C00222021E6
:100BE0002B460090204602F0BDFC0028E3D122688D
:100BF000D4E907352679E168176845EA0665DFF824
:100C000044C01943104B29430025012607EA0C076D
:100C1000394311602268D4E90517B4F810C0D2F83E
:100C200004E039430EEA030E4EEA0C4319435160C7
:100C300021680A6842F001020A60656484F8416034
:100C4000F8BD00002FFFFF00FEF8E0FFF0B587B011
:100C5000044614216846FFF76EFC2B492068884241
:100C60004FD12A48016841F480410160006800F4D6
:100C70008040059025480C30016841F0100101606A
:100C8000016801F010010591016841F00201016065
:100C9000016801F002010591016841F0080101605D
:100CA00000680024042700970225694600F0080028
:100CB000CDE9015409260394CDE904601448FFF7F7
:100CC000D7FC00976946134FCDE90154CDE903469F
:100CD0003846FFF7CDFC4FF460500090CDE9015449
:100CE0000D486946CDE90346FFF7C2FC0A214020C2
:100CF0000090CDE90154CDE9034169463846FFF73C
:100D0000B7FC07B0F0BD000000500052D4440258B8
:100D10000010025800040258000C025810B501F0EF
:100D20009DF805490968054AC1F30211515C01F0BB
:100D30001F01C84010BD0000204402583C6200085A
:100D4000494930B5484C0B1D0A680C3409681D68C8
:100D5000246802F0030305F00102C1F30511C4F396
:100D6000CC04002914FB02F200EE102AF8EE400A2F
:100D700075D03F4A9FED3D1AB7EE000A6BB1DFED2B
:100D80003D1A012B01D0022B64D002EE101A11681B
:100D9000F8EE422A81EEA22A21E0334C283C236857
:100DA0009B0612D5344B246801EE901A1168C4F3E7
:100DB000C104F8EE612AE34001EE903AC1F3080164
:100DC000F8EE611A81EEA22A0BE001EE901ADFED37
:100DD0002B2A00BFF8EE611A116882EEA12AC1F336
:100DE000080101EE901A1168F8EE611A40EE811ABE
:100DF00071EE800A62EE200AC1F3462101EE101A5C
:100E0000B8EE411A31EE001AC0EE811ABCEEE11ABA
:100E100080ED001A1168C1F3064101EE101AB8EE18
:100E2000411A31EE001AC0EE811ABCEEE11A80EDD3
:100E3000011A1168C1F3066101EE101AB8EE411AE9
:100E400031EE000A80EE801ABCEEC10A80ED020A83
:100E500030BD04E001EE901ADFED092ABAE7002167
:100E6000016041608160F3E72844025800000039C6
:100E7000304402580024744A0090D0030024744C7B
:100E800020BCBE4B494930B5484C0B1D0A68143490
:100E900009681D68246802F00303C5F30012C1F35A
:100EA0000531C4F3CC04002914FB02F200EE102A31
:100EB000F8EE400A75D03F4A9FED3D1AB7EE000AA2
:100EC0006BB1DFED3D1A012B01D0022B64D002EE95
:100ED000101A1168F8EE422A81EEA22A21E0334C62
:100EE000283C23689B0612D5344B246801EE901AE7
:100EF0001168C4F3C104F8EE612AE34001EE903AB0
:100F0000C1F30801F8EE611A81EEA22A0BE001EEAE
:100F1000901ADFED2B2A00BFF8EE611A116882EEFD
:100F2000A12AC1F3080101EE901A1168F8EE611AC6
:100F300040EE811A71EE800A62EE200AC1F346216A
:100F400001EE101AB8EE411A31EE001AC0EE811A05
:100F5000BCEEE11A80ED001A1168C1F3064101EE02
:100F6000101AB8EE411A31EE001AC0EE811ABCEE2A
:100F7000E11A80ED011A1168C1F3066101EE101A41
:100F8000B8EE411A31EE000A80EE801ABCEEC10ABA
:100F900080ED020A30BD04E001EE901ADFED092A6F
:100FA000BAE70021016041608160F3E728440258FC
:100FB00000000039384402580024744A0090D003DD
:100FC0000024744C20BCBE4B494930B5484C0B1D25
:100FD0000A681C3409681D68246802F00303C5F31D
:100FE0000022C1F30551C4F3CC04002914FB02F222
:100FF00000EE102AF8EE400A75D03F4A9FED3D1AE8
:10100000B7EE000A6BB1DFED3D1A012B01D0022BC8
:1010100064D002EE101A1168F8EE422A81EEA22A7C
:1010200021E0334C283C23689B0612D5344B2468BE
:1010300001EE901A1168C4F3C104F8EE612AE3408E
:1010400001EE903AC1F30801F8EE611A81EEA22A8E
:101050000BE001EE901ADFED2B2A00BFF8EE611ACB
:10106000116882EEA12AC1F3080101EE901A1168FD
:10107000F8EE611A40EE811A71EE800A62EE200AE3
:10108000C1F3462101EE101AB8EE411A31EE001AF2
:10109000C0EE811ABCEEE11A80ED001A1168C1F3AE
:1010A000064101EE101AB8EE411A31EE001AC0EEF8
:1010B000811ABCEEE11A80ED011A1168C1F30661D4
:1010C00001EE101AB8EE411A31EE000A80EE801AD5
:1010D000BCEEC10A80ED020A30BD04E001EE901AB8
:1010E000DFED092ABAE70021016041608160F3E782
:1010F0002844025800000039404402580024744A31
:101100000090D0030024744C20BCBE4B2DE9F04766
:101110004FF480760146B0426F48DFF8B8818AB05C
:101120006E4B4FF080576E4DA8F104044FEA201229
:101130004FF0005C29D1D8F8001001F00701052913
:101140001FD2DFE801F0030A0F20140006A8FFF702
:10115000F7FD07980AB0BDE8F0876846FFF792FEF2
:101160000098F7E703A8FFF72FFF0398F2E721683D
:1011700011F04051EED0B94275D11046EAE7184659
:10118000E8E70020E6E72846E4E7B1F5007F19D05C
:10119000544EB1F5806F26D0B1F5006F37D04FF4C3
:1011A000805949454FF4804A4BD1D8F8001001F4DA
:1011B000E041B1F5005FD5D03DDC0029C6D04945FE
:1011C000DFD1CAE7D8F8001001F4E0718029C9D056
:1011D00004DC0029BAD04029D3D1BEE7C029D2D03F
:1011E000B142CED1C3E7316801F46001B1F5800F9F
:1011F000B8D005DC0029A9D0B1F5001FC1D1ACE7FA
:10120000B1F5C00FBFD0B1F5000FBAD1AFE731686B
:1012100001F0E061B1F1007FA4D005DC002995D098
:10122000B1F1807FADD198E7B1F1407FABD0B1F1A2
:10123000806FA6D19BE7B1F5405FA4D05145A0D106
:1012400095E7B1F5002F4FF480350DD0A9421DD19F
:10125000206810F48030B1D0A84292D16846FFF7E0
:1012600011FE029876E70EE0316811F44031A8D003
:10127000A94203D0B1F5003F83D178E703A8FFF777
:10128000A3FE059866E761459AD178E7514597D165
:10129000316801F0E041B1F1405FE3D009DC81B198
:1012A000B94211D061458BD103A8FFF78DFE049898
:1012B00050E7B1F1804F3FF460AFB1F1A04F8BD157
:1012C0005DE7FFF72BFD45E76846FFF7DBFD01987B
:1012D00040E70000504402580090D00340787D0160
:1012E0000080BB00584402582DE9FC5F044650F8CA
:1012F000241B002500902E460801FE4FDFF8F883DE
:101300001DD5606E50B1B0F5801F0CD0B0F5001F38
:101310000ED0B0F5401F1DD001250FE0386840F415
:101320000030386016E00221201D02F03FF903E092
:101330000098022102F0CAF905000BD02E46208841
:10134000C00523D5606D05281ED2DFE800F00C1122
:10135000161B1B00626ED8F8001021F440111143D7
:10136000C8F80010EBE7386840F40030386009E056
:101370000021201D02F01AF903E00098002102F07C
:10138000A5F905466DB100E001252E4620888005AF
:1013900028D5A06D80281ED00CDC90B140280ED13D
:1013A00014E0626DD8F8001021F007011143C8F86D
:1013B0000010EBE7C02813D0B0F5807F10D00125D6
:1013C0000FE0386840F40030386009E00021201D4B
:1013D00002F0ECF803E00098002102F077F90546EE
:1013E00095B12E462088DFF81093400509F10809D1
:1013F0002CD5D4F8A400B0F5800F20D00DDCA0B11E
:10140000B0F5001F0FD115E0A26DD8F8001021F43F
:10141000E0711143C8F80010E4E7B0F5C00F13D035
:10142000B0F5000F10D001250FE0386840F400300F
:10143000386009E00021201D02F0B8F803E00098B0
:10144000002102F043F9054675B12E4620880005BB
:101450002DD5D4F8A800B0F1007F21D00EDCA8B1C2
:10146000B0F1807F10D116E0D4F8A420D9F8001094
:1014700021F460011143C9F80010E7E7B0F1407FA3
:1014800013D0B0F1806F10D001250FE0386840F420
:101490000030386009E00021201D02F087F803E0E9
:1014A0000098002102F012F905466DB12E46206821
:1014B00080011FD5A06CD8B110280FD0202812D0E1
:1014C000302815D0012514E0D4F8A820D9F8001050
:1014D00021F0E0611143C9F80010E8E7386840F4F2
:1014E0000030386004E00221201D02F05FF805465C
:1014F0006DB12E462088C0042BD5E06DB0F5005F9D
:1015000020D00DDCA0B1B0F5805F0FD115E07A4896
:10151000A26C001F016821F0300111430160E9E76E
:10152000B0F5405F13D0B0F5804F10D001250FE02B
:10153000386840F40030386009E00021201D02F0D6
:1015400035F803E00098002102F0C0F8054685B1A7
:101550002E462088800429D5206EB0F5403F23D048
:1015600010DC08B3B0F5803F14D0B0F5003F0FD1C8
:1015700015E0E26DD8F8001021F4E0411143C8F8FD
:101580000010E6E7B0F5802F0ED0B0F5A02F0BD0FD
:1015900001250AE00121201D02F008F803E000986F
:1015A000012102F093F805468DB12E4620884004B3
:1015B0002AD5D4F8AC00B0F1405F23D010DC08B3DA
:1015C000B0F1805F14D0B0F1005F0FD115E0226E52
:1015D000D8F8001021F4E0211143C8F80010E5E725
:1015E000B0F1804F0ED0B0F1A04F0BD001250AE032
:1015F0000121201D01F0DAFF03E00098012102F033
:1016000065F805466DB12E46208800041FD5E06EB2
:10161000D8B1B0F1805F0ED0B0F1005F10D00125DD
:1016200014E0D4F8AC20D9F8001021F0E0411143C7
:10163000C9F80010E8E7386840F40030386004E08A
:101640000121201D01F0B2FF05466DB12E46206834
:10165000C0011ED5606CD0B101280ED0022811D077
:10166000032814D0012513E0E26ED8F8001021F011
:1016700040511143C8F80010E9E7386840F40030E1
:10168000386004E00221201D01F090FF054685B17D
:101690002E462068DFF85CB04002ABF11C0B57D53A
:1016A0001648016841F480710160FFF705F9824630
:1016B0000EE01148626C001F016821F00301114324
:1016C0000160E6E7FFF7F8F8A0EB0A0064283DD8D0
:1016D0000A480068C005F5D57DBBDFF81CA0B4F84A
:1016E000B0100AF1200ADAF8000001F4407100F4A9
:1016F000407005E02C4402585044025800480258FB
:10170000884211D0DAF80010DAF8002021F4407194
:1017100042F48032CAF80020DAF8002022F4803245
:10172000CAF80020CAF80010D4F8B000B0F5807FE5
:1017300021D1FFF7C1F8019019E008E0FFF7BCF8EC
:101740000199411A41F28830814210D903252E4671
:101750002078DFF830A4C0073DD0A06F182838D01B
:1017600026DC80B3082829D0102825D12CE0DAF80F
:1017700000008007E2D5D4F8B010C1F3012003289F
:1017800058460DD0016821F47C510160B4F8B020B6
:10179000DAF80010C2F30B021143CAF80010D7E7C1
:1017A000F94A036802EA111223F47C511143ECE771
:1017B00020280ED028280CD001250BE00121201D67
:1017C00001F0F4FE04E004E00098012101F07EFF46
:1017D00005465DB12E46207880071ED5606F06282D
:1017E00019D2DFE800F0160C11161616A26FDAF8FF
:1017F000001021F038011143CAF80010EBE7012175
:10180000201D01F0D3FE03E00098012101F05EFFEE
:10181000054675B100E001252E46207840071FD50A
:10182000D4F89000062819D2DFE800F0160C111643
:101830001616626FDAF8001021F007011143CAF89A
:101840000010EAE70121201D01F0B0FE03E000983E
:10185000012101F03BFF05469DB100E001252E4628
:10186000207880062BD5D4F88C00B0F1405F24D0CE
:1018700011DC10B3B0F1805F15D0B0F1005F10D172
:1018800016E0D4F89020D9F8001021F00701114398
:10189000C9F80010E4E7B0F1804F0ED0B0F1A04FCE
:1018A0000BD001250AE00021201D01F07FFE03E09E
:1018B0000098022101F00AFF05468DB12E462078DE
:1018C00040062BD5D4F89800B0F5406F24D011DC39
:1018D00010B3B0F5806F15D0B0F5006F10D116E0E1
:1018E000D4F88C20DAF8001021F0E0411143CAF856
:1018F0000010E4E7B0F5805F0ED0B0F5A05F0BD02C
:1019000001250AE00021201D01F050FE03E00098AF
:10191000022101F0DBFE05468DB12E46207800063F
:101920002BD5D4F89C00B0F5C04F24D011DC10B3F7
:10193000B0F5005F15D0B0F5804F10D116E0D4F8A7
:101940009820D9F8001021F4E0511143C9F8001093
:10195000E4E7B0F5004F0ED0B0F5204F0BD00125D5
:101960000AE00021201D01F021FE03E00098022181
:1019700001F0ACFE05464DB12E46207800071ED57D
:10198000D4F88000B0F5805F0AD00FE0D4F89C2036
:10199000D9F8001021F460411143C9F80010ECE7B8
:1019A0000098022101F092FE00B10126D4F88020B7
:1019B000DAF8001021F440511143CAF800102078E1
:1019C000C00613D5D4F89400B0F5807F05D10098F7
:1019D000022101F07BFE00B10126D4F89420D9F851
:1019E000001021F440711143C9F800102068000371
:1019F00016D5D4F8A00038B1B0F5803F09D0B0F5C5
:101A0000003F0BD001250AE00021201D01F0CEFD92
:101A100003E00098022101F059FE054685B12E46EB
:101A20002068400322D5D4F88400B0F5801F11D07F
:101A3000B0F5001F13D0B0F5401F15D0012514E0FC
:101A4000D4F8A020D9F8001021F440311143C9F88E
:101A50000010E5E7386840F40030386004E0009892
:101A6000012101F033FE054655B12E462068C00322
:101A70001CD5E06C70B1B0F5803F10D0012514E0AA
:101A8000D4F88420DAF8001021F440111143CAF888
:101A90000010EBE7386840F40030386004E00221C1
:101AA000201D01F083FD0546CDB12E462068800043
:101AB00005D50098022101F009FE00B10126206839
:101AC00080031BD5E06FB8B1B0F5807F10D0B0F5C2
:101AD000007F11D0B0F5407F0ED001250DE02948E0
:101AE000E26C0838016821F4803111430160DDE7C0
:101AF000386840F400303860F5B32E462068C002E4
:101B000007D5226FD8F8001021F000411143C8F822
:101B100000102068C00008D5D4F8B420DBF800100D
:101B200021F480411143CBF800102068800207D5D2
:101B3000A26ED8F8001021F080711143C8F800108F
:101B4000206840000CD5DBF8001021F40041CBF8F0
:101B50000010DBF80010D4F8B8201143CBF80010C7
:101B60002068002807DA0748226D0838016821F04C
:101B700040511143016000E008E086B10120BDE85A
:101B8000FC9F000054440258CFFFFF00E26FDAF8D8
:101B9000001021F440711143CAF80010AEE7002094
:101BA000EDE700002DE9F05F04000F467ED0DFF87E
:101BB0003882D8F8000000F00F00B8420CD2D8F8F4
:101BC000001021F00F013943C8F80010D8F80000C8
:101BD00000F00F00B84269D12078844D40070AD543
:101BE0002069296801F07001884204D9296821F030
:101BF00070010143296020787C4E361D00070AD50C
:101C00006069316801F07001884204D9316821F0BF
:101C10007001014331602078C0060AD5A06931689F
:101C200001F4E061884204D9316821F4E0610143A4
:101C300031602078DFF8B4B180060BF1080B0CD5C9
:101C4000E1695846DBF8002002F07002914204D9A5
:101C5000026822F070020A430260207880070AD5E9
:101C6000E068296801F00F01884204D9296821F051
:101C70000F01014329602078C0073ED05B49A2686C
:101C80002868183920F470601043286060680228C2
:101C900018D0032819D00968012819D0490700294C
:101CA0004ADADFF848A1AAF1080A00E044E0DAF8CD
:101CB000002022F007020243CAF80020FEF7FCFDD4
:101CC000814612E009688903E9E709688901E6E7C6
:101CD000C905E4E7FEF7F0FDA0EB090141F2883009
:101CE000814202D90320BDE8F09F6168DAF8000064
:101CF00000F03800B0EBC10FECD1207880070AD596
:101D0000E068296801F00F01884204D2296821F0B7
:101D10000F0101432960D8F80010404601F00F017F
:101D2000B9420BD9016821F00F0139430160006805
:101D300000F00F00B84201D00120D4E7207840071E
:101D40000AD52069296801F07001884204D2296807
:101D500021F0700101432960207800070AD56069ED
:101D6000316801F07001884204D2316821F07001BD
:101D7000014331602078C0060AD5A069316801F4BA
:101D8000E061884204D2316821F4E06101433160AE
:101D9000207880060CD5E1695846DBF8002002F077
:101DA0007002914204D2026822F070020A4302607B
:101DB00000F088F80E492A682B68C2F3032203F06A
:101DC0000F038A5CC95C02F01F0201F01F01D040C2
:101DD000084A20FA01F111600749086007480068C5
:101DE000BDE8F05FFEF712BE002000521844025812
:101DF0003C620008140000241000002408000024A5
:101E000070B5144C3F220260124A24680832131D38
:101E1000114D04F00704446016681C1D06F470663A
:101E20008660166806F00F06C660126802F070023F
:101E300002611A6802F0700242611A6802F4E062FC
:101E40008261226802F07002C261286800F00F000F
:101E5000086070BD104402580020005230B500F0F8
:101E600031F80B4A0B490C4B15681468C5F3032273
:101E700004F00F048A5C095D02F01F0201F01F01EB
:101E8000D040064A20FA01F119601060084630BDC2
:101E9000184402583C62000814000024100000247A
:101EA00000B5FFF7DBFF05490968054AC1F30211D8
:101EB000515C01F01F01C84000BD00001C440258E5
:101EC0003C620008454970B545480968434B103BE2
:101ED00011F0380208D00111082A03D0102A0BD0C3
:101EE000182A0BD0084670BD19688906FBD51968F9
:101EF000C1F3C101C84070BD3A4870BD3749374D84
:101F000018310C1D24350A68096826682D6802F00E
:101F1000030406F00102C1F30511C5F3CC0515FB5E
:101F200002F200EE102AB8EE400AE9B32F4ADFEDC4
:101F30002E0AB7EE001A6CB1DFED2D1A012C01D07C
:101F4000022C43D002EE101A1068F8EE422A81EEFD
:101F5000A22A1EE01C68A40611D51B6801EE901A87
:101F60001168C3F3C103F8EE612AD84001EE900A6C
:101F7000C1F30800F8EE611A81EEA22A0BE001EE2F
:101F8000901ADFED1C2A00BFF8EE611A106882EE8D
:101F9000A12AC0F3080001EE900AF8EE611A40EEA3
:101FA000201A31EE810A00E015E022EE000A1068E6
:101FB000C0F34620401C00EE900AF8EE600A80EE66
:101FC000201ABCEEC10A10EE100A70BD01EE901A84
:101FD000DFED092AD8E7002070BD00001044025848
:101FE0000090D00340787D01000000393044025851
:101FF0000024744A0024744C20BCBE4B2DE9F05FD1
:1020000004007CD0FF4F2078FE4D1837DFF8F493A2
:10201000103DC00748D0D9F80000396800F03800FA
:10202000102815D0182803D101F0030002280FD082
:102030006068B0F5803F12D010B1B0F5A02F18D075
:10204000286820F480302860286820F4802009E087
:102050002868800328D560680028D2D024E028684A
:1020600040F480302860606888B1FEF725FC0646A1
:1020700009E0286840F480202860F0E7FEF71CFCA7
:10208000801B64287ED828688003F7D50CE0FEF713
:1020900013FC064605E000BFFEF70EFC801B64281B
:1020A000F0D828688003F7D4207841F20308D54E91
:1020B0000C3E800753D5D9F80000396810F038007D
:1020C0000ED0182801D188070AD0E068A8B3296883
:1020D00021F0190101432960FEF7EEFB82461BE067
:1020E0002868400702D5E06800288AD0FEF7DEFBAA
:1020F00040451BD82069402812D0316800E0CCE070
:1021000021F47C3141EA0030306028E0FEF7D4FB56
:10211000A0EB0A000228B5D828684007F6D5E5E705
:10212000306820F47C3040F40030EDE7207C3168EA
:1021300021F0FE4141EA0060E6E7FFE7286820F071
:1021400001002860FEF7B8FB824605E0FEF7B4FB0D
:10215000A0EB0A00022895D828684007F6D420781A
:10216000C0065FD5D9F80000DFF898B2396800F0F2
:102170003800ABF1040B082812D0182805D101F063
:10218000030000E0EAE001280AD0E069002828689E
:1021900038D040F080002860FEF78EFB824623E0B6
:1021A0002868C00523D5E069802876D11FE0206A21
:1021B000202821D0316821F0F84141EA8060306068
:1021C00030E000BF94F82010DBF8002022F07C52B1
:1021D00042EA0161CBF8001024E000BFFEF76CFB7F
:1021E000A0EB0A00022896D82868C005F6D5FEF7AD
:1021F0005DFB4045E6D8DAE7306820F0F84040F073
:102200008040DCE720F080002860FEF755FB0646A2
:1022100005E000BFFEF750FB801B02289BD8286812
:10222000C005F7D42078000729D576486169643065
:1022300000298046016811D041F001010160FEF7DC
:102240003BFB064605E000BFFEF736FB801B02287D
:10225000C9D8D8F800008007F6D510E021F00101B8
:102260000160FEF729FB064605E000BFFEF724FBF0
:10227000801B022872D8D8F800008007F6D4207896
:10228000800623D5A0690028286810D040F480502B
:102290002860FEF711FB064605E02CE1FEF70CFB7B
:1022A000801B02285AD828688004F7D50EE020F455
:1022B00080502860FEF700FB064604E0FEF7FCFABB
:1022C000801B02284AD828688004F7D42078400769
:1022D0004FD5DFF83481D8F8001041F48071C8F888
:1022E0000010FEF7E9FA064605E000BFFEF7E4FA43
:1022F000801B642832D8D8F80000C005F6D5414EBE
:10230000A068603601280AD008B1052813D03068CB
:1023100020F001003060306820F0040002E03068F6
:1023200040F001003060A06841F2883A90B1FEF7B9
:10233000C3FA80460AE0306840F004003060EEE7FF
:10234000FEF7BAFAA0EB0801514507D830688007BC
:10235000F6D50EE0FEF7B0FA804607E084E000BF55
:10236000FEF7AAFAA0EB080151457DD83068800736
:10237000F6D4606AF0B3DFF88C80D9F8001008F169
:102380002008C1F3C20103296FD00228286820F079
:102390008070286003D0FEF78FFA044680E0FEF7D5
:1023A0008BFA064605E000BFFEF786FA801B02287E
:1023B00073D828688001F7D4E26A40F2F3313868B4
:1023C00054F8283F884340EA021018433860217BC4
:1023D0004FF4FE0C22894FF0FE47208A4902267DE9
:1023E000521E401EA1F5007189B20CEA0040C2F3F2
:1023F000080200E081E01143761E0143014807EA2C
:10240000066203E010440258004802581C30114391
:102410003B4AC8F80010016821F001010160116811
:102420004FF6F876236AB14341EAC30111600168AF
:10243000A26921F00C01114301600168E26921F0F9
:10244000020111430160016841F4803101600168BB
:1024500041F400310160016841F4802101600168AC
:1024600041F00101016001E017E01DE0286840F043
:1024700080702860FEF720FA044604E0FEF71CFA9C
:10248000001B022809D828688001F7D535E000BF75
:10249000FEF712FA001B022802D90320BDE8F09FC4
:1024A00028688001F4D428E039680128D8F80000B1
:1024B00021D0A26A01F0030393421CD1E26AC1F366
:1024C00005118A4217D1216BC0F30802491E8A42C6
:1024D00011D1616BC0F34622491E91420BD1A16B11
:1024E000C0F30642491E914205D1E16BC0F306607C
:1024F000491E814201D00120D0E70020CEE7000034
:10250000344402582DE9FE430446C06B0E460321B5
:1025100084F83410002703285ED0B6F5004F5BD056
:10252000B6F5804F4FF000004FF400654FF0806823
:1025300004D01EB3A06B40F0006043E00090002187
:1025400001908146206801F01BFC800113D469468C
:10255000204601F047FC05000DD1019840032FD51E
:10256000B4F848102068090401F040F9050002D1D0
:10257000206802211EE0A06B284323E00090002188
:1025800001908146206801F0FBFB8001F3D469468D
:10259000204601F027FC0500EDD10198C0030FD5BE
:1025A000B4F848102068090401F020F90500E2D1D0
:1025B0002068002101F064F90500DCD14D46DAE71E
:1025C0004546D8E7A063A06B4FF40078184D38B1AA
:1025D00020680127856318E0A06B40F08050F1E788
:1025E000D4E904C0D4E901123346042806D2E66DCA
:1025F000464503D0B6F5807F18D00420CDF800C042
:10260000CDE9010A206801F0BFFB2068414601F0D6
:102610001EF928B1216801278D63A16B0143A163D5
:10262000012084F834003846BDE8FE830220E5E747
:10263000FF0FE01F70470000F0B5026E920F0A70A6
:10264000026EC2F383624A70026EC2F301628A7044
:10265000026E120CCA70B0F86020120A0A7190F86B
:1026600060204A71426E120DCA80426EC2F303426C
:102670000A72B0F86420C2F3C0324A72B0F8642023
:10268000C2F380328A72B0F86420C2F34032CA7258
:10269000B0F864200026C2F300320A734E730122A0
:1026A000C36B4FF4007463B1012B3AD003685049F7
:1026B0009963816B41F08051816380F8342001205F
:1026C000F0BDB0F86430856E9B051B0D43EA957331
:1026D0000B61836EC3F3C2630B75836EC3F3026336
:1026E0004B75836EC3F342538B75836EC3F3824382
:1026F000CB75836EC3F3C2330B760D696D1CC56455
:102700000B7E03F007039B1C9D40C5640B7A846518
:1027100003F00F0302FA03F35F0A7D43C0E91435A7
:102720000EE090F86450836EAD06AD0A45EA13439F
:102730000B610B695B1C9B02C364C0E91443846595
:10274000B0F86830C3F380334B76B0F86830C3F329
:10275000C6138B7690F8683003F07F03CB76C36E98
:10276000DB0F0B77C36EC3F341734B77C36EC3F3B9
:1027700082638B77C36EC3F38353CB77C36EC3F38C
:10278000405381F8203081F82160C36EC3F30043C9
:1027900081F82230B0F86C30C3F3C03381F82330B5
:1027A000B0F86C30C3F3803381F82430B0F86C306B
:1027B000C3F3403381F82530B0F86C30C3F30033F5
:1027C00081F82630B0F86C30C3F3812381F82730CC
:1027D000B0F86C30C3F3012381F8283090F86C0016
:1027E000C0F3460081F8290081F82A200020F0BDBE
:1027F000FF0FE01F70B5B0F84810002504460068D0
:10280000090401F01BF918B1A16B0143A16304E0B5
:102810002068002101F0B4FA0546C5F3432070BDDD
:102820002DE9F04190B00C4600260546694601F0BE
:1028300057FC2A4F4FF0010840B12A6801269763E0
:10284000AA6B0243AA6385F8348036E000994FF4FE
:102850007F40C1F3811121700099C1F34011617073
:10286000009A114600EA122242EA11616180019940
:1028700009BA6160029921720299090A617202998A
:10288000C1F30351A172DDE9022100EA1240C9B28D
:102890000843A0810398C0F38520A0730398C0F378
:1028A0000120E0730398C0F303102074039800F034
:1028B0000F0060740498000EA07428684FF4007133
:1028C00000F0C5FF28B12A6801269763A86385F840
:1028D000348010B03046BDE8F0810000FF0FE01FEB
:1028E000F0B5040085B024D094F83400002538B940
:1028F000A069257708B90220A061204600F096F86B
:10290000032084F83400204600F03CF888B969467A
:102910002046FFF785FF60B99DF81010E26B9DF827
:102920001100012A08D0E5652046E168FFF7EAFDBD
:1029300058B1012005B0F0BD014302D04FF4007042
:1029400001E04FF48070E065EEE7FDF7B5FF012789
:10295000064604E0FDF7B0FF801B401C0AD020466D
:10296000FFF748FF0428F5D1A563256384F8347088
:102970000020DFE74FF00040A06384F834700320AC
:10298000D8E70000FEB5002504464FF48030FEF77E
:10299000BDFB234A0646A169B0FBF2F7022904D128
:1029A0002068016841F01001016000952B46CDE9D7
:1029B000017420682A46294601F0E6F9206801F0F2
:1029C000F3F97800B6FBF0F020B11649B1FBF0F056
:1029D000401C00E00220FDF739FE204601F0DEFA3F
:1029E0004FF0010530B100BF84F83450A16B0143B2
:1029F000A16313E0204601F067FA0028F4D12068B3
:102A00004FF4007100F023FF002808D02268064927
:102A10009163A16B0143A16384F834500120FEBD92
:102A200000350C0010210100FF0FE01FF0B587B04A
:102A3000044614216846FDF77EFD1A492068884245
:102A40002DD11948016841F480310160006800F41B
:102A50008030059014480C30016841F00401016099
:102A6000016801F004010591016841F0080101606D
:102A7000006802240025694600F00800059003263E
:102A80000C274FF4F8508DE8F1000848FDF7F0FDF1
:102A9000042069468DE8F1000548FDF7E9FD07B01F
:102AA000F0BD000000700052D444025800080258E3
:102AB000000C02582DE9F047040029D04A4A4FF093
:102AC00000092068494B4A4D9042C4F8289006D02E
:102AD000984204D0A84202D0E1680F2918D8E168D2
:102AE0004FF0010AE76B0831C9080AEB571671432A
:102AF000904205D0984203D0A84201D0082907D8B7
:102B0000904203D0984201D0A84204D1102902D9A2
:102B10000120BDE8F08794F8810020B9204684F8B0
:102B2000809000F067F8022084F881002068016836
:102B300021F001010160A069B0F1806F0AD16068E5
:102B4000B0F5800F06D1A06B20B92068016841F470
:102B500080510160A56AE0692368E16B2843E2685F
:102B6000084310439860D4E90D02D4E905C1636AB3
:102B700025691843D4F820800A4326681043284367
:102B8000A56DD4E90172D4E9123140EA0C0040EAA3
:102B9000080038430843104318432843F060606836
:102BA00068B92068816821F4C05141F400618160F6
:102BB0002068816821F4C06141F4806181602068EF
:102BC000016D21F0010101656068400206D52068B1
:102BD000626DC16821F000411143C160C4F8849066
:102BE00084F881A0002094E70030014000380040C4
:102BF000003C004070B586B0054614216846FDF7DC
:102C00009AFC2949002428680225284B1039264AB5
:102C10000526984228D1106840F480501060106852
:102C200000F480500590086840F0080008600868CB
:102C300000F008000590086840F00200086008688D
:102C4000694600F00200059080200090CDE9015413
:102C50001748CDE90346FDF70BFD182000901548F5
:102C60006946CDE9015419E0134B98421AD1106816
:102C700040F400501060106800F40050059008689F
:102C800040F0100008600868694600F010000590E8
:102C90004FF4A04000900948CDE90154CDE9034626
:102CA000FDF7E6FC06B070BDF0440258003001406C
:102CB000000C025800040258003401400010025871
:102CC00070477047704700002DE9F04390F83C20B2
:102CD000012A42D0012280F83C2051F80C4BDFF849
:102CE00080804FF0000991E8680051E9022723F441
:102CF0004073B1F80CC03B43CF6923F480631343A6
:102D0000026823F40063234323F4805343EA05035A
:102D100023F4005343EA060323F4804343EA070302
:102D20000C3923F47023424543EA0C4302D00D4C86
:102D3000A2420CD18D8C23F47006D1E9073446EA07
:102D4000055121F08071194321F00073234353642E
:102D500080F83C900020BDE8F0830220FBE70000F3
:102D60000000014000040140F0B590F83C20012A29
:102D700038D01D4E012480F83C40022280F83D20CE
:102D800002681A4D5368B242D2F808C001D0AA4274
:102D900003D14F6823F470033B430F6823F07003A3
:102DA0001F4357600268B24210D0B2F1804F0DD07D
:102DB0000F4B9A420AD00F4B9A4207D00E4B9A42C1
:102DC00004D0AA4202D00D4B9A4204D189682CF05B
:102DD000800319439160002180F83D4080F83C1049
:102DE0000846F0BD0220F0BD000001400004014093
:102DF0000004004000080040000C004000180040A3
:102E000010B5040003D094F83D0010B107E0012094
:102E100010BD002084F83C00204600F022F802207B
:102E200084F83D002068211D01F0CAFA012084F8D1
:102E3000480084F83E0084F83F0084F8400084F89D
:102E4000410084F8420084F8430084F8440084F888
:102E5000450084F8460084F8470084F83D000020CF
:102E600010BD704790F83D10012901D00120704736
:102E70000B4A022180F83D100168CB6843F0010342
:102E8000CB60006881681140062906D0B1F5803F0B
:102E900003D0016841F0010101600020704700008B
:102EA00007000100704770B50446006800250169FD
:102EB000C943890715D4C168C943890711D4EA1EDB
:102EC000026101212177206880698007204602D0B5
:102ED000FFF7E8FF04E000F0D1F8204600F0A4F985
:102EE000257720680169C943490717D4C168C943D8
:102EF000490713D402216FF0040202612177206890
:102F0000806910F4407F204602D0FFF7CBFF04E039
:102F100000F0B4F8204600F087F9257720680169B1
:102F2000C943090716D4C168C943090712D404214B
:102F30006FF00802026121772068C069800720468F
:102F400002D0FFF7AFFF04E000F098F8204600F051
:102F50006BF9257720680169C943C90617D4C16890
:102F6000C943C90613D408216FF01002026121770A
:102F70002068C06910F4407F204602D0FFF792FF1E
:102F800004E000F07BF8204600F04EF92577206839
:102F90000169C943C90708D1C168C943C90704D138
:102FA000891E0161204600F040F920680169C9438B
:102FB000090609D4C168C943090605D46FF0800128
:102FC00001612046FFF77DFE20680169C943C905FC
:102FD00009D4C168C943090605D46FF48071016141
:102FE0002046FFF76DFE20680169C943490609D4F0
:102FF000C168C943490605D46FF04001016120460C
:1030000000F01AF920680169C94389060BD4C16828
:10301000C943890607D46FF0200101612046BDE84D
:103020007040FFF74FBE70BD10B586B00446142146
:103030006846FDF780FA0E492068884216D10D488F
:10304000016841F01001016000680123022200F0D4
:103050001000059000204FF4806100916946CDE991
:103060000120CDE903030448FDF702FB06B010BDC3
:1030700000000140E044025800100258704770B54B
:10308000044690F83C000D4601280BD0012084F83E
:103090003C000C2A45D007DC5AB1042A1BD0082A70
:1030A00078D12CE0022070BD102A4ED0142A71D1A4
:1030B0005DE0206801F0E6F92068816941F00801CF
:1030C00081612068816921F00401816120682A6999
:1030D0008169114311E0206801F028FA20688169B4
:1030E00041F4006181612068816921F4806181611E
:1030F00020682969826942EA012181614AE02068E9
:1031000001F060FA2068C16941F00801C1612068DE
:10311000C16921F00401C16120682A69C1691143B4
:1031200011E0206801F094FA2068C16941F400615F
:10313000C1612068C16921F48061C1612068296989
:10314000C26942EA0121C16124E0206801F0B6FAB7
:103150002068416D41F0080141652068416D21F012
:103160000401416520682A69416D114311E020681E
:1031700001F0DAFA2068416D41F400614165206890
:10318000416D21F48061416520682969426D42EA00
:1031900001214165002084F83C0070BD10B5040099
:1031A00003D094F83D0010B107E0012010BD0020CD
:1031B00084F83C00204600F023F8022084F83D000B
:1031C0002068211D01F0FCF8012084F8480084F8F3
:1031D0003E0084F83F0084F8400084F8410084F801
:1031E000420084F8430084F8440084F8450084F8E1
:1031F000460084F8470084F83D00002010BD000020
:1032000008B500680649884208D10648016841F0BF
:1032100001010160006800F00100009008BD00009D
:1032200000000140F044025870470068B0F1804F40
:1032300001D1FDF7B5BB70477047FEE7044A002196
:10324000044810B501F03AFC0349086010BD0000C5
:1032500018620008C5410008000000242DE9F04173
:1032600086B014216846FDF766F93648016841F0DA
:1032700010010160016801F010010591016841F041
:1032800004010160016801F004010591016841F049
:1032900080010160016801F080010591016841F041
:1032A00002010160016801F002010591016841F02D
:1032B00008010160016801F008010591016841F011
:1032C00001010160006800221F4F082100F0010089
:1032D00005903846FDF7E4FA4FF4205638460122AF
:1032E0003146FDF7DDFADFF86480002240214046D8
:1032F000FDF7D6FA00246946012508200090CDE9A3
:10330000015438460394FDF7B3F968036946CDE9E3
:1033100000040F480294FDF7ABF903206946CDE99C
:103320000065CDE902403846FDF7A2F94020009043
:10333000CDE90154694640460394FDF799F906B07A
:10334000BDE8F081E044025800100258000C025819
:10335000000802580C48002110B50122094CFF2337
:10336000C0E90221C0E904218161C1610162C0E9B3
:103370000043FDF715FC002803D0BDE81040FDF721
:1033800062B910BD00500052900000240C4800218A
:103390004FF4804210B5094C0123C0E90041C0E957
:1033A00002120161C0E90513FFF79AFA002803D061
:1033B000BDE81040FDF747B910BD00000070005295
:1033C000DC00002470B5154803224FF48005124E2E
:1033D00000212C01C0E902120161A300C0E905141B
:1033E000C0E9073141629A008162C162C0E90D21E2
:1033F000C163016441648164C164016541658165A3
:10340000C0E90065FFF756FB002803D0BDE8704017
:10341000FDF719B970BD0000003001405C010024C7
:103420002DE9F04115484FF480060021124D34017A
:103430000722C0E90321E300C0E90514C0E9073110
:1034400041625A0081624FF4C027C162C0E90D2178
:10345000C163016441648164C16401654165816542
:1034600080E8E000FFF726FB002803D0BDE8F0412C
:10347000FDF7E9B8BDE8F08100340140E401002423
:1034800010B596B000241C210BA812941394149428
:10349000FDF751F82C216846FDF74DF822480B2224
:1034A000204940F2E73380E81600C0E90334446164
:1034B0008461FFF773FE08B1FDF7C5F81A4812A939
:1034C000129413941494FFF74FFC08B1FDF7BBF866
:1034D0006020CDE90B04144804220BA90D940E942E
:1034E0000F9410941194FFF7CAFD08B1FDF7ABF8E3
:1034F0004FF400500094019401030294CDE904407C
:1035000003940694CDE907410748694609940A9453
:10351000FFF7DAFB08B1FDF796F80348FFF784FDE3
:1035200016B010BD000001406C0200240B480021C1
:1035300070B5094D10240560012384600222C0E9A2
:103540000331C0E90621FDF7BDF9002803D0BDE82D
:103550007040FDF778B870BD00000840B802002444
:10356000FEE7FEE72DE9F041984616460F46044671
:10357000069D08E0681C06D0FDF79EF9A0EB080048
:10358000A8420AD84DB120688068384000D0012098
:10359000B042EFD10020BDE8F081042084F8410062
:1035A000606C40F0010060640120F4E72DE9F04711
:1035B000454D044689464FF0000A2868C0438007FD
:1035C0000AD0414E283E306820F080603060FDF720
:1035D00073F90746B04608E00120BDE8F08700BF58
:1035E000FDF76AF9C01B022867D8D8F8000000016F
:1035F000F6D4206829684FF4FE0721F47C313E029E
:1036000041EA00302860207AA389B4F804C040025F
:103610002D4D2D495B1E227CACF1010C1035091D8E
:10362000A0F5007080B2521ECCF3080C07EA0343E9
:1036300040EA0C00184306EA02621043286008685A
:10364000626920F0C000104308600A68A06922F097
:10365000200202430A60281D0A6822F010020A6054
:1036600002684FF6F873E4699A4342EAC4020260C2
:103670000868B9F1000F40F010020A6011D0086824
:10368000B9F1010F11D040F400100860D8F8000023
:10369000444640F08060C8F80000FDF70DF905468B
:1036A0000DE0086840F40020EFE740F48010ECE7FC
:1036B000FDF702F9401B022801D903208DE720689D
:1036C0000001F5D5504688E7284402582DE9F04717
:1036D000454D044689464FF0000A2868C0438007DC
:1036E0000AD0414E283E306820F080503060FDF70F
:1036F000E3F80746B04608E00120BDE8F08700BFC8
:10370000FDF7DAF8C01B022867D8D8F8000080005F
:10371000F6D4208829684FF4FE0721F07C713E0220
:1037200041EA00502860207AA389B4F804C040021E
:103730002D4D2D495B1E227CACF1010C1835091D65
:10374000A0F5007080B2521ECCF3080C07EA0343C8
:1037500040EA0C00184306EA026210432860086839
:10376000626920F44060104308600A68A06922F48E
:10377000007202430A60281D0A6822F480720A60FF
:1037800002684FF6F873E4699A4342EAC4020260A1
:103790000868B9F1000F40F480720A6011D008681F
:1037A000B9F1010F11D040F080700860D8F8000026
:1037B000444640F08050C8F80000FDF77DF805460B
:1037C0000DE0086840F48000EFE740F40000ECE70B
:1037D000FDF772F8401B022801D903208DE720680D
:1037E0008000F5D5504688E72844025830B585B0AA
:1037F000044637204FF480720DF1080CCDE900101B
:1038000000236946150120468CE82C0000F0D6FA0A
:10381000372141F28832204600F088F905B030BDEA
:1038200030B585B0044629204FF480720DF1080CA4
:10383000CDE9001000236946150120468CE82C00D4
:1038400000F0BCFA204600F02DFA05B030BD30B5CE
:103850000446102085B00DF1080C02010502CDE9E7
:103860000010002369468CE82C00204600F0A6FAE0
:10387000102141F28832204600F058F905B030BDE1
:1038800030B585B0044606204FF480720DF1080C67
:10389000CDE9001000236946150120468CE82C0074
:1038A00000F08CFA062141F28832204600F03EF901
:1038B00005B030BD30B585B00546002469464FF4EB
:1038C0008050009401940294CDE90340284600F012
:1038D00075FA0B4A4FF4FA5041F288311268B2FB84
:1038E000F0F04843401E03D24FF0004005B030BD19
:1038F000696B0906F6D503492046A963F6E700007F
:1039000010000024C500200030B50821044685B011
:103910004FF4D57000254A014B0204938DE827002F
:103920006946204600F04AFA134A4FF4FA5041F231
:1039300088311268B2FBF0F04843401E03D24FF0CA
:10394000004005B030BD616B11F0450FF5D0890422
:10395000F3D4606B400701D5042003E0606BC0071F
:1039600002D00120A063ECE7606B400601D5402047
:10397000A0632846E5E700001000002430B585B0BC
:1039800004464FF480710DF1040C072000920023CF
:103990000D018CE82B006946204600F00FFA072144
:1039A00041F28832204600F0C1F805B030BD10B5B4
:1039B00086B00446002102204FF44072C3020493F3
:1039C000CDE90010CDE902216946204600F0F6F964
:1039D000204600F03DF906B010BD30B585B0044674
:1039E00009200DF1080C0023CDE900104FF44072BE
:1039F00069464FF4805520468CE82C0000F0DEF933
:103A0000204600F025F905B030BD10B586B004465B
:103A1000002133204FF48072CDE90221CDE900105E
:103A2000130169462046049300F0C8F9332141F29E
:103A30008832204600F07AF806B010BD30B585B067
:103A400004460D204FF480720DF1080CCDE90010F2
:103A500000236946150120468CE82C0000F0AEF9E1
:103A60000D2141F28832204600F060F805B030BDEB
:103A700030B585B00C460021054603204FF4807216
:103A8000CDE90221CDE900101301694628460493CF
:103A900000F094F903212246284600F027F905B0EA
:103AA00030BD10B586B0044600210D204FF4807261
:103AB000CDE90221CDE900101301694620460493A7
:103AC00000F07CF90D2141F28832204600F02EF8FA
:103AD00006B010BD10B586B0044600210B204FF48F
:103AE0008072CDE90221CDE900101301694620461C
:103AF000049300F063F90B2141F28832204600F074
:103B000015F806B010BD70B50A6842624A68826254
:103B1000C46AD1E90225D1E9043624F0FF012A4321
:103B200033431A431143C162002070BD30B5464D86
:103B30004FF4FA53434C2D68B5FBF3F353435B1E2C
:103B400002D24FF0004030BD426B2242F7D09204C7
:103B5000F5D4426B520703D504218163084630BD7A
:103B6000426BD20702D00121816306E0354A8032E0
:103B700082630269D2B28A4201D0012030BD0021A5
:103B800000F0FEF83149084201D1002030BD002884
:103B900002DA4FF0007030BD410001D5402030BD49
:103BA000810001D5802030BDC10002D54FF4807066
:103BB00030BD010102D54FF4007030BD410102D586
:103BC0004FF4806030BDC10102D54FF4006030BDBC
:103BD000010202D54FF4805030BD410202D54FF4AE
:103BE000005030BD810202D54FF4804030BDC1028B
:103BF00002D54FF4004030BD410302D54FF40030F0
:103C000030BD810302D54FF4802030BDC10302D501
:103C10004FF4002030BD010402D54FF4801030BDB8
:103C2000410402D54FF4001030BD810402D54FF499
:103C3000800030BD000702D54FF4000030BD4FF4C6
:103C4000803030BD450020001000002408E0FFFD5A
:103C5000124B4FF4FA5141F288321B68B3FBF1F179
:103C60005143491E02D24FF000407047426B12F0A0
:103C7000450FF6D09204F4D4416B490703D50421D3
:103C8000816308467047416BC90703D001218163F6
:103C900008467047024981630020704710000024E5
:103CA000C50020000F4B4FF4FA5141F288321B68D7
:103CB000B3FBF1F15143491E02D24FF0004070476F
:103CC000426B12F0450FF6D09204F4D4416B4907D1
:103CD00003D50421816308467047034981630020AE
:103CE0007047000010000024C500200030B5204DB2
:103CF0004FF4FA5341F288342D68B5FBF3F3634374
:103D00005B1E02D24FF0004030BD446B14F0450FF3
:103D1000F6D0A404F4D4436B5B0703D5042181637C
:103D2000084630BD436BDB0702D00121816303E00D
:103D30000369DBB28B4201D0012030BD0D498163A4
:103D4000002100F01DF810F4604F04D0410406D5A6
:103D50004FF4005030BD000C1080002030BD000436
:103D600002D54FF4805030BD4FF4803030BD00009C
:103D700010000024C5002000006800F00300704718
:103D8000084440697047000030B511434268DDE9DE
:103D900003542B43034D194321432A400A434260F5
:103DA000002030BD002CC0FF016841F0030101601C
:103DB00000207047D0F880007047000070B5084DB3
:103DC0000A688260C368D1E90126D1E903412B402A
:103DD00032430C4322431343C360002070BD0000F4
:103DE000C0E0FEFF2DE9F04F87B00D460446FCF71A
:103DF00063FD0026069020680821B3463746FFF78A
:103E000026FD002833D1B4F8481020680904FFF7D4
:103E1000EDFC00282BD1431E4FF008094FF0020A99
:103E20004FF0300C4FF00108CDF80CA08DE80812CF
:103E3000CDE9046820686946FFF765FE2068FFF752
:103E4000E4FD002813D140F22A582068416B11EAA2
:103E5000080F06D1416B090315D4BBF1000F09D03F
:103E600011E0416B090717D5C0F83890082007B05A
:103E7000BDE8F08FFFF79EFF06462068FFF79AFF28
:103E800007464FF0010BFCF717FD0699401A401C3E
:103E9000DBD14FF00040EAE7416B890703D5C0F85A
:103EA00038A00220E3E7416B890603D52021816316
:103EB0000846DCE7034A39BA33BA82630020C5E911
:103EC0000013D4E73A0F001810B58CB00446012057
:103ED000ADF82C002068FFF74FFF002853D0E06BAF
:103EE000032841D02068FFF762FD002849D12068EF
:103EF0000021FFF745FF206704212068FFF740FFFE
:103F0000606708212068FFF73BFFA0670C2120684D
:103F1000FFF736FFE16BE067032925D020680BA986
:103F2000FFF7A6FD00282CD1E06B03281CD0BDF8BC
:103F30002C10A16420680904FFF74FFD002820D150
:103F400020680021FFF71CFF206604212068FFF78E
:103F500017FF606608212068FFF712FFA0660C219A
:103F60002068FFF70DFFE06604212068FFF708FFD7
:103F7000000D694660642046FEF75EFB30B14FF0ED
:103F800080500CB010BD4FF08060FAE7B4F84800E4
:103F9000002302042068FFF7F1FCF2E72DE9F84F57
:103FA00000260446354637460096FCF785FC8046D9
:103FB0002068FFF77FFC002867D12068FFF7A4FC8A
:103FC0004FF001094FF6FF7A48B126642068FFF7E9
:103FD00071FC002859D1206C012802D01CE0C4F8E3
:103FE000409000212068FFF701FCE0BB14E020684E
:103FF0000021FFF7FBFB002847D120685946FFF757
:104000000FFC80BB20680021FFF7BAFEC70F0546F2
:104010000098401C009003E0DFF8C0B056460098BE
:10402000B04201D2002FE2D0B0424FF0807749D2A7
:10403000680051D5A169C4F83C9002294CD1E8012F
:104040004AD50802E0652068016841F00801016076
:104050002068FFF73FFD002817D1FD012068406B65
:10406000400108D400E00EE0FCF726FCA0EB0800BD
:10407000401CF3D128E021684FF0806088632068FD
:10408000406BC00203D44FF08050BDE8F88F012090
:10409000FEF7D0FA2068016841F00401016005E0F4
:1040A000FCF70AFCA0EB0800401C0DD02068406B18
:1040B0008001F5D521684FF0007088632068416B5E
:1040C000C90203D53846E0E72846DEE713224FF061
:1040D000FF310260206881630020D6E7000010C134
:1040E0002DE9F04186B00D460446FCF7E5FB0021C2
:1040F00007462068FFF744FE800104D54FF40060B6
:1041000006B0BDE8F08120684021FFF7A0FBC0B9F0
:10411000B4F8481020680904FFF768FB88B940210B
:104120004FF0FF3060224FF0010C022300268DE893
:104130004F1020686946FFF7E6FC2068FFF7B1FCE6
:1041400098B1A16BA163DBE7406B000407D50026A3
:104150002068FFF72FFE761C082E01C5F8D3FCF768
:10416000ABFBC01B401C02D127E04FF00048206889
:10417000416B11F4957FE7D0416B090701D5082009
:10418000BEE7416B890701D50220B9E7406B800685
:104190000AD52020B4E700BFFFF70CFE01C5FCF7ED
:1041A0008BFBC01B401C08D02068416BC904F3D4B2
:1041B0000146034888630020A2E74046A0E70000CC
:1041C0003A0F0018012000F023FCFBE7502010B547
:1041D00080F31188BFF34F8FBFF36F8F01F076FE2E
:1041E00018B104494FF080500860002080F3118816
:1041F00010BD000004ED00E0F0B5CBB04C212FA8BD
:10420000FCF799F9202142A8FCF795F9BC216846F2
:10421000FCF791F90220FCF791FC2A4800242A4976
:10422000026842F44042026002680A6842F00102F9
:104230000A60096801F001014A9101688904FCD50E
:104240000DF1E40C012335930526C0270220389098
:104250008CE8C1003C9008253D90C2033E9021218E
:10426000CDE93F5441942FA8CDE92F12FDF7C6FEAA
:1042700008B172B6FEE740203F210301CDE9455069
:104280000322CDE9470342AB499042A883E81600D8
:104290000421FDF787FC08B172B6FEE712944FF4D3
:1042A00040110A481394179418942191009068467D
:1042B000FDF71AF808B172B6FEE7FCF769FC4BB0DF
:1042C000F0BD0000184802582C04005800300502C8
:1042D0002E48F0B52E4A016841F470010160106863
:1042E00000F00F00072804D2106820F00F00C01D56
:1042F000106028490020274C10340B68264D43F0ED
:1043000001030B6020600B682B400B60136803F007
:104310000F03072B04D9136823F00F03DB1D136071
:104320001C4C1E4A18341E4B261D371D2060194C8C
:104330001C4D28343060261D3860371D23603B1D1E
:1043400035601C1D3A60251D2E1D1860331D22602E
:104350002860326018600A680E4B134C22F48022E9
:1043600060330A60186020686FF30F00B0F1005FDF
:1043700003D20E490120C1F8080143F2D2000C49D2
:10438000024B4A03803B08601A60F0BD88ED00E0F4
:1043900000200052004402587FEDF6EA800201013D
:1043A000000202020000FF010010005C00800051CA
:1043B000004000520148FEF776BD00007C05002455
:1043C0002DE9F047274B4FF0804A274D026898426D
:1043D000264E274F274C09D0504507D0A84205D07C
:1043E000B04203D0B84201D0A04205D1D1F804C0F8
:1043F00022F070024CEA0202DFF87CC0DFF87C8019
:104400009842DFF87C900FD050450DD0A8420BD0D9
:10441000B04209D0B84207D0A04205D0604503D0D1
:10442000404501D0484503D1CD6822F440722A436B
:104430004D6922F080022A43026098428A68C26273
:104440000A68826207D0A04205D0604503D040458B
:1044500001D0484501D10969016301214161BDE8ED
:10446000F087000000000140000400400008004008
:10447000000C0040000401400040014000440140A5
:10448000004801402DE9F04F026ADFF88880DFF82C
:10449000889022F00102DFF884A0DFF884B0214F79
:1044A0000262DFF884C0066A4268836926F0020669
:1044B0000D68B8428C6803EA0C0323F0030344EA56
:1044C000060445EA030507D0404505D0484503D01A
:1044D000504501D0584505D1CB6824F0080423434A
:1044E00023F00404B84207D0404505D0484503D026
:1044F000504501D0584505D122F44076D1E9053226
:1045000033431A4342608561496841630462BDE8F0
:10451000F08F0000000401400040014000440140D1
:1045200000480140000001408FFFFEFFF0B5026A25
:104530001E4E1F4C22F01002DFF878E00262056A7E
:104540004368826925F02005D1F808C0A0420F68B1
:1045500002EA060222F4407245EA0C1542EA0722FA
:1045600001D0704506D1CE6825F0800545EA0615D4
:1045700025F04005A0420AD0704508D00E4CA0425C
:1045800005D00E4CA04202D00D4CA04207D1D1E97B
:10459000054623F4406343EA840343EA8603436009
:1045A0008261496881630562F0BD0000FF8FFFFEF4
:1045B000000001400004014000400140004401406F
:1045C00000480140F0B5026A1C4D1D4E22F4807275
:1045D000A8420262026A4368C76922F40072D1F8F5
:1045E00008C00C6827F0730742EA0C2244EA07046B
:1045F00001D0B04206D1CF6822F4006242EA07221D
:1046000022F48062A8420AD0B04208D00D4DA842E0
:1046100005D00D4DA84202D00C4DA84207D1D1E9DA
:10462000055623F4405343EA051343EA0613436057
:10463000C4614968C1630262F0BD0000000001402E
:104640000004014000400140004401400048014096
:1046500070B5026A144B22F4805202629842036AD7
:104660004268C46923F400538E680D6824F4E6445C
:1046700043EA063344EA05240BD00C4DA84208D087
:104680000B4DA84205D00B4DA84202D00A4DA842BE
:1046900004D14D6922F4804242EA85124260C4612D
:1046A00049680164036270BD0000014000040140DC
:1046B000004001400044014000480140F0B5026A5A
:1046C00022F480320262134F056A4268446D25F479
:1046D00000350E89B8420B6824F0700445EA06459F
:1046E00043EA04030BD00C4CA04208D00B4CA04270
:1046F00005D00B4CA04202D00A4CA04204D14C6918
:1047000022F4803242EA04224260436549688165AE
:104710000562F0BD0000014000040140004001407E
:104720000044014000480140F0B5026A22F48012C2
:104730000262134F046A4268436D24F400140E8928
:10474000B8420D6823F4E04344EA065443EA0523E3
:104750000BD00C4DA84208D00B4DA84205D00B4DF4
:10476000A84202D00A4DA84204D14D6922F4003279
:1047700042EA8522426043654968C1650462F0BD32
:10478000000001400004014000400140004401409D
:104790000048014070B5044606990A9E049D01290F
:1047A0000D9816D0E06840F04000E060204600F030
:1047B0002DF8A16B26B321F48031A163012D07D11F
:1047C000A16841F00601A160A16841F02001A1604B
:1047D00070BDA26B01280C4922F48030A063E06810
:1047E00000EA0100E060E06820F44010E06003D1DE
:1047F000E06840F48010E060204600F007F8DDE754
:1048000041F48031D9E70000BFFFBDFF0C49012210
:1048100002E0521C8A420BD80369002BF9DA0369C3
:10482000012243F00103036104E0521C8A4201D9D2
:10483000032070470369DB07F7D1002070470000B1
:10484000400D0300816821F0010181600020704764
:1048500008B5D0F8402422F02E020092D20405D4EC
:10486000012909D1009941F4805103E021B900994F
:1048700021F48051C0F84014002008BD064A1021E0
:1048800001610021491C914201D90320704703694D
:10489000DB06F7D400207047400D03002023074AB1
:1048A00043EA811303610021491C914201D903208D
:1048B000704703699B06F7D400207047400D030042
:1048C0002DE9F041002517460446DDF81880C0F8B0
:1048D000005E806B20F40010A063A06B20F4003019
:1048E000A063E06BC00501D5012B04D0D4F800040F
:1048F00020F0040103E0D4F8000440F00401204655
:10490000C4F800141021FFF7C9FF2046FFF7B6FFD7
:1049100000204FF0FF3606E004EB4011C1F80865B7
:10492000C1F80C55401C8742F6D801212046FFF7FC
:104930008FFFC820FBF78AFEA5616661E06BC005AA
:1049400004D50D494FF400720C4802E00C49802256
:104950000C486262A162C4F80001B8F1000F03D1F3
:10496000A06940F01000A061A06907490843A06158
:104970000020BDE8F0810000000200010003E0001B
:1049800080006000E0004000080020A310B5C2686D
:10499000012922F0C042C26002D029B1012010BD1D
:1049A000C16841F0005102E0C16841F08041C1603E
:1049B0003220FBF74BFE002010BDFEE70907002860
:1049C0004FEA116104DB00F1E02080F80014704729
:1049D00000F00F0000F1E02080F8141D7047FBF795
:1049E000E7FFFFF709FCFEF739FCFEF7B3FCFEF723
:1049F000CDFCFEF7E7FCFEF713FDFEF741FDFEF7E9
:104A000095FD00F01FF8FEF719FC00F037F8FEE7FF
:104A100010B5EFF3058181B9EFF3108111B9EFF310
:104A2000118119B106490968022906D04FF0000426
:104A300008B100F019FE204610BD6FF00504FAE73A
:104A400068000024EFF3058070B9EFF310800A4985
:104A50000028086802D1EFF311820AB1022803D0BE
:104A600028B14FF0FF3070476FF00500704701220A
:104A70000A600020704700006800002410B5EFF3C2
:104A8000058078B9EFF310800B490028086802D13F
:104A9000EFF311820AB1022804D0012805D04FF0AB
:104AA000FF3010BD6FF0050010BD0220086000F05F
:104AB00043FE002010BD0000680000242DE9FF41E6
:104AC0004FEA01034FF00005EFF305810395B1BBF9
:104AD000EFF3108111B9EFF3118119B12049096881
:104AE00002293BD058B34FF080074FF018014FF028
:104AF00000044AB3166806B1344696691EB13146C1
:104B0000761E382E02D21679F60703D0002004B0A4
:104B1000BDE8F081566906B1B708D2F808C0BCF10B
:104B2000000F0DD0D5685C2D18D312693AB136B19B
:104B30008DE806103A46214601F089F903900DE010
:104B4000D6685EB912694AB903AACDE90012BAB2B1
:104B5000214601F04FF9012800D003950398D6E7CC
:104B6000680000242DE9F041134C0F4605466669A4
:104B70002068001D00F046FC681C07D137B1216891
:104B8000BDE8F0410D48091D00F08EBC2068354499
:104B9000B5424560216805D2A068091DBDE8F04115
:104BA00000F06ABC6068091D00F066FC206B85425D
:104BB00000D22563BDE8F08118000024B80A002463
:104BC0002DE9F041054600F07BFC2D4C2D4F20696E
:104BD000401C2061206810B1E06930B32BE02560F3
:104BE0002069012827D1002606EB860007EB80000C
:104BF00000F034FC761C382EF6D3234800F02EFC4F
:104C00002148143000F02AFC1F48283000F026FC10
:104C10001D483C3000F022FC1B48503000F01EFCC8
:104C2000194860601430A06005E0E86A2168C96A2C
:104C3000814200D82560E06A401CE0626864E86A4E
:104C4000A169884200D9A06100EB8000291D07EB13
:104C5000800000F029FC00F053FCE06900280CD033
:104C60002068E96AC06A884207D208494FF080503C
:104C70000860BFF34F8FBFF36F8FBDE8F081000076
:104C80001800002408060024680A002404ED00E04F
:104C900038B500F015FC104CA068C8B90F4800F0FA
:104CA000DDFB0E48143000F0D9FB0C4900202160D8
:104CB0001431616001F11403009001F164021021CC
:104CC0000A2000F031FEA06010B105A100F096FCB2
:104CD000BDE8384000F014BC54000024CC0A002485
:104CE000546D72510000000030B4026C0B46002A73
:104CF0000BD0D0E902411144C160A14201D3016847
:104D0000C160184630BCFBF797BB30BC70472DE93B
:104D1000F041856B1746026C0446002682B1C7B18C
:104D2000E068FBF789FBE168206C2268091AE16002
:104D3000914202D2A168081AE060022F16D017E053
:104D40002068A8B9A06801F025F906460020A060F7
:104D50000EE06068FBF770FBD4E90101226C10449F
:104D60006060884204D32068606001E005B16D1E78
:104D70006D1CA5633046BDE8F08110B5044690F87F
:104D8000590058B101280CD002280FD0502080F3D0
:104D90001188BFF34F8FBFF36F8FFEE7206B00F0DA
:104DA000C3FB2046BDE8104000F0BEBB10BD0000B4
:104DB00011484FF4705110B5420706D00E49C01D7E
:104DC00020F00700411AC1F570510C4C002301443A
:104DD0000839A4F1100221F00701C4E900030C1AFC
:104DE00011604B600B60C0E9001494604FF000410B
:104DF0005460D16010BD00009C1200247C0000248F
:104E0000144E4FF08058144CDFF85090A6F29C4797
:104E100012E000BF00F054FBF068C568281D00F0E8
:104E2000F1FA2069401E2061E068401EE06000F059
:104E300067FB2846FFF7A1FFE0680028EAD1386841
:104E40000128F9D9C9F80080BFF34F8FBFF36F8FE6
:104E5000F2E70000A40A00241800002404ED00E09A
:104E600070B51D46049C51B1C4F80020C4E90F017F
:104E70000121204600F08CFD84F84C5070BD246068
:104E8000F4E72DE9F05F88469A4691001546DDE982
:104E90000B940A9EA5228346206BFBF744FB206BF4
:104EA0006FF0030101EB8501084420F00707780744
:104EB00007D0502080F31188BFF34F8FBFF36F8F5F
:104EC000FEE7B8F1000F4FF000050ED000202218C9
:104ED00018F8001082F8341018F8001011B1401CB6
:104EE0001028F4D384F8435001E084F83450382E6D
:104EF00000D33726E662201DC4E9136500F0B9FA35
:104F000004F1180000F0B5FA6565C6F13800A0613B
:104F100084F858505246246159463846646200F07D
:104F200059FAB9F1000F206001D0C9F80040BDE87E
:104F3000F09F000030B5114900E011460A68824236
:104F4000FBD34B685C18844203D144680846234471
:104F50004B6043681D18954209D1084C103C2468E9
:104F6000A24209D052681A4442600A68126802607C
:104F7000814200D0086030BD0460F9E77C00002465
:104F800070B50D4D914241604FF00004006106D8AC
:104F90008169D21A8A4206D2011D686807E09A42E6
:104FA00003D2994201D3012403E0011D286800F0D7
:104FB00063FA204670BD00005400002410B504467A
:104FC00000F07EFAA06B28B15FF0000400F098FAC0
:104FD000204610BD0124F9E730B53C4D89B06BE0A7
:104FE0000498002806DA059ADDE90601904704983E
:104FF000002861DB069C606910B1201D00F002FAF8
:1050000003A800F0D5F8024604980A2854D2DFE835
:1050100000F00505052D304705052D3094F82800D2
:1050200040F0010084F82800A06905990B4601446E
:105030002046FFF7A5FF50B3216A2046884794F821
:105040002800400738D50020009005980023A1696A
:1050500042181946204601F0A5F8C0B9502080F347
:105060001188BFF34F8FBFF36F8FFEE794F82800CE
:105070001EE094F8280040F0010084F8280005980C
:10508000A06128B1811813462046FFF779FF13E08D
:10509000502080F31188BFF34F8FBFF36F8FFEE76F
:1050A00094F82800810703D4204600F03DFA03E07D
:1050B00020F0010084F82800A868002204A900F06C
:1050C000BFFD00288CD109B030BD00005400002481
:1050D0002DE9FC410F46054600F072FB01A800F0E7
:1050E00067F80446019818B100F0CAFFBDE8FC81DA
:1050F000254EAFB170680068D0B30027B068291B97
:105100003A4600F08FFA00F0BBFF0028EED11F49AD
:105110004FF080500860BFF34F8FBFF36F8FE5E70C
:10512000A542EBD800F0ACFF30682746C068C468E1
:10513000201D00F067F994F82800410719D5A069EF
:105140002B463A4641192046FFF71AFFA8B1002026
:105150002A46034601460090204601F023F860B934
:10516000502080F31188BFF34F8FBFF36F8FFEE79E
:1051700007E020F0010084F82800216A20468847D3
:10518000B4E70127BAE700005400002404ED00E072
:1051900006484168096829B14168C968C968496811
:1051A000016370474FF0FF31FAE700001800002458
:1051B00070B5054600F084FE064E04463069844210
:1051C00003D200F009F8012000E00020286020460A
:1051D000346170BD54000024F8B5194D20E0C0685A
:1051E000C4680668201D00F00DF9216A2046884732
:1051F00094F82800400713D5A0693044B04206D97E
:105200002461211D6060286800F036F908E0002064
:105210003246034601460090204600F0C3FF38B1F5
:10522000286801680029DAD16968C5E90010F8BD6D
:10523000502080F31188BFF34F8FBFF36F8FFEE7CD
:105240005400002408484068401C4FF0500080F390
:10525000118804D0BFF34F8FBFF36F8FFEE7BFF30A
:105260004F8FBFF36F8FFEE784000024074C206848
:10527000016841B1C0680021D0F80000FFF728FFA5
:10528000FFF7AAFEF3E701210020F7E7540000240E
:105290002DE9F041044600F013F994F9455004F16A
:1052A000240609E0606A48B1304600F0B1FE08B15A
:1052B00000F008FA6D1E6DB2002DF3DC4FF0FF36E2
:1052C00084F8456000F01CF900F0FAF894F94450B5
:1052D00004F1100709E0206948B1384600F098FE53
:1052E00008B100F0EFF96D1E6DB2002DF3DC84F80B
:1052F0004460BDE8F04100F003B900002DE9F04141
:105300000027044600F05CFA314E306808B9FFF718
:105310004FFDF06804424BD1C4B3083460070ED08F
:1053200004F00700C0F108000444600707D05020D3
:1053300080F31188BFF34F8FBFF36F8FFEE72CB35D
:105340007068844234D82248103001460D6801E06C
:1053500028460D466968A14202D229680029F7D182
:1053600031688D4224D00768296801600837686871
:10537000011B10290FD92819420708D0502080F3AB
:105380001188BFF34F8FBFF36F8FFEE710E04160CE
:105390006C60FFF7CFFD69687068401A7060B26892
:1053A000904200D2B0600020F2681143C5E90001CC
:1053B00000F066FE780707D0502080F31188BFF315
:1053C0004F8FBFF36F8FFEE73846BDE8F0810000D6
:1053D0006C00002470B5041F094E231F4FF0807528
:1053E00021F0010125601C1F1960A0F120010B1F95
:1053F000266044380A606FF002051D6070BD000031
:1054000045520008D0E9013201699A60D0E90123D0
:105410005A604A68824201D182684A600022026171
:105420000868401E086008687047000010B5044C0A
:105430008023046004F15C000860136010BD00006C
:10544000E40B002410B5044C4FF48073046004F1A5
:105450005C000860136010BD400E00244FF0FF3365
:1054600000F108010022C0E901130260C16001617E
:10547000704700210161704730B50B685A1C02D09B
:1054800000F1080202E0026904E02246546825683F
:105490009D42FAD953684B6099608A6051600861F7
:1054A0000168491C016030BD42684A6093688B60A6
:1054B00093685960916008610168491C01607047F8
:1054C000502080F31188BFF34F8FBFF36F8F0A49CD
:1054D0004868401C486001280CD10848006810F05A
:1054E000FF0F07D0502080F31188BFF34F8FBFF319
:1054F0006F8FFEE7704700008400002404ED00E099
:105500000849486828B1401E486001D180F31188DD
:105510007047502080F31188BFF34F8FBFF36F8F18
:10552000FEE700008400002470B5002827D0144D49
:10553000A0F108046068E968084207D1502080F3B0
:105540001188BFF34F8FBFF36F8FFEE722683AB128
:10555000502080F31188BFF34F8FBFF36F8FFEE7AA
:105560008843606000F02CF96068696808446860EE
:105570002046FFF7DFFCBDE8704000F081BD70BD44
:105580006C0000244FF0E020002101614FF47A729A
:105590008161072303490968B1FBF2F1491E4161AA
:1055A000036170471000002410B5FAF721FF11497C
:1055B00010280ED300F1E0200A7890F8F003904212
:1055C00007D2502080F31188BFF34F8FBFF36F8F46
:1055D000FEE709488968006800F4E060884207D95E
:1055E000502080F31188BFF34F8FBFF36F8FFEE71A
:1055F00010BD0000840000240CED00E0084B5FF0BB
:10560000000210B553F832401CB1521C082AF9D3DD
:1056100010BD03EBC20443F83210606010BD0000FF
:10562000C805002470B515460E460446FFF748FF2E
:1056300094F944100020491C01D184F8440094F9E5
:105640004510491C01D184F84500FFF759FFA06BB4
:1056500028B904F124002A46314600F051F82046CA
:10566000BDE87040FFF714BE020010B514D00F481B
:10567000806B38B1502080F31188BFF34F8FBFF398
:105680006F8FFEE700F09CF800211046FFF76AFAE2
:1056900000F0F6FC002807D105494FF08050086063
:1056A000BFF34F8FBFF36F8F10BD000018000024B1
:1056B00004ED00E002498A6A02604969416070476E
:1056C0001800002401490120486270471800002496
:1056D00010B50C4650B1094909681831FFF7CCFEE6
:1056E0002046BDE810400121FFF73CBA502080F36E
:1056F0001188BFF34F8FBFF36F8FFEE718000024B0
:1057000070B514460D4668B10A4909681831FFF7AB
:10571000CBFE0CB14FF0FF3521462846BDE8704066
:10572000FFF720BA502080F31188BFF34F8FBFF3EB
:105730006F8FFEE71800002430B587B0002405AA5B
:1057400004A9039403A80494FFF770FEDDE90301A4
:1057500000940023CDE90110174815A1059A00F027
:1057600076FB164D002868631FD000F0EBFC012883
:1057700009D0401C19D1502080F31188BFF34F8FFE
:10578000BFF36F8FFEE7502080F31188BFF34F8F78
:10579000BFF36F8F01214FF0FF302863E9616C6127
:1057A00007B0BDE8304000F045B807B030BD00009C
:1057B00049444C4500000000014E00081800002438
:1057C0000248816B491C8163704700001800002467
:1057D000164810B5816B11B10121416210BD002145
:1057E0004162134A816901E0B9B1491E01EB8103AD
:1057F00052F82330002BF7D001EB810302EB830238
:1058000002F1080453685B685360A34201D15B68EE
:105810005360DA680260816110BD502080F3118806
:10582000BFF34F8FBFF36F8FFEE700001800002417
:105830000806002437481CB5374902688A4207D158
:10584000502080F31188BFF34F8FBFF36F8FFEE7B7
:1058500031490068491E884207D1502080F31188E1
:10586000BFF34F8FBFF36F8FFEE72C49FF200A78FD
:105870000192087008788DF800009DF800209DF8CE
:10588000000002F0F002824207D0502080F311881D
:10589000BFF34F8FBFF36F8FFEE79DF80020072007
:1058A0001F4C02F050022270A06005E09DF800201D
:1058B00052008DF80020401E9DF800201206F5D4FD
:1058C0000328A06007D0502080F31188BFF34F8FCA
:1058D000BFF36F8FFEE74FF44070A060019808702F
:1058E0000C482030016841F470010160016841F00A
:1058F00070410160FFF746FE00206060FAF740FD4E
:105900000848016841F040410160FAF725FD002098
:105910001CBD000000ED00E071C20F4100E400E09A
:105920008400002434EF00E0F8B5069D18B153B1AF
:10593000CAB181B120E0502080F31188BFF34F8FAE
:10594000BFF36F8FFEE7502080F31188BFF34F8FB6
:10595000BFF36F8FFEE7502080F31188BFF34F8FA6
:10596000BFF36F8FFEE739B1502080F31188BFF38A
:105970004F8FBFF36F8FFEE750241C46012683F83C
:10598000466000932B46FFF76BFA2046F8BD0000F7
:105990002DE9F04704008A4629D0FFF791FD2168E0
:1059A0000025D4E90F23D4F840C004F110081046B4
:1059B0000E46401E4FF0FF3902FB031200FB0C1095
:1059C000BAF1000FA563666084F8449084F84590AE
:1059D000C4E9022013D04046FFF740FD04F1240043
:1059E000FFF73CFDFFF78CFD0120BDE8F08750205C
:1059F00080F31188BFF34F8FBFF36F8FFEE72069ED
:105A00000028EFD0404600F003FB0028EAD004490C
:105A10004FF080500860BFF34F8FBFF36F8FE1E707
:105A200004ED00E02DE9FF4704001D4682B08A46E0
:105A30004FF0000803D0BAF1000F08D011E0502059
:105A400080F31188BFF34F8FBFF36F8FFEE7206C99
:105A500038B1502080F31188BFF34F8FBFF36F8FA1
:105A6000FEE7022D0AD1E06B012807D0502080F319
:105A70001188BFF34F8FBFF36F8FFEE700F012FA6C
:105A80003F4F4FF080564FF0000948B9049838B1A5
:105A9000502080F31188BFF34F8FBFF36F8FFEE765
:105AA000FFF70EFDA06BE16B884207D3022D05D0F6
:105AB0000498D0B1B8F1000F1AD01EE02A46514622
:105AC0002046FFF724F9616A19B104F1240000F0BF
:105AD0009FFA20B13E60BFF34F8FBFF36F8FFFF788
