:020000040800F2
:10000000C0060024390300088B1700087516000885
:10001000891700083F0400087B1D0008000000004D
:100020000000000000000000000000008F17000822
:1000300041040008000000008D1700089117000817
:100040005303000853030008530300085303000838
:100050005303000853030008530300085303000828
:100060005303000853030008530300085303000818
:100070005303000853030008530300085303000808
:1000800053030008530300085303000853030008F8
:1000900053030008530300085303000853030008E8
:1000A00053030008530300085303000853030008D8
:1000B00053030008530300085303000853030008C8
:1000C00053030008530300085303000853030008B8
:1000D00053030008530300085303000853030008A8
:1000E00053030008530300080000000053030008F6
:1000F0005303000853030008530300085303000888
:100100005303000853030008530300085303000877
:100110005303000853030008530300085303000867
:100120005303000853030008530300085303000857
:100130005303000853030008530300085303000847
:1001400000000000000000000000000000000000AF
:100150005303000853030008530300085303000827
:100160005303000853030008530300085303000817
:100170005303000853030008530300080000000065
:1001800053030008530300085303000853030008F7
:1001900053030008530300085303000853030008E7
:1001A00053030008530300085303000853030008D7
:1001B00053030008530300085303000853030008C7
:1001C00053030008530300085303000853030008B7
:1001D00053030008530300085303000853030008A7
:1001E0005303000853030008530300085303000897
:1001F0005303000853030008530300085303000887
:100200005303000853030008530300085303000876
:100210005303000853030008530300085303000866
:1002200053030008530300085303000800000000B4
:1002300053030008530300080000000053030008A4
:100240005303000853030008530300085303000836
:100250005303000853030008530300085303000826
:100260005303000853030008530300085303000816
:100270005303000853030008530300080000000064
:100280005303000853030008530300080000000054
:10029000000000005303000800F002F800F03CF8F2
:1002A0000AA090E8000C82448344AAF10107DA45D1
:1002B00001D100F031F8AFF2090EBAE80F0013F0E7
:1002C000010F18BFFB1A43F001031847181B000069
:1002D000381B0000103A24BF78C878C1FAD85207FA
:1002E00024BF30C830C144BF04680C6070470000B0
:1002F0000023002400250026103A28BF78C1FBD82F
:10030000520728BF30C148BF0B6070471FB501F0CE
:100310005BFD1FBD10B510BD00F058F81146FFF78A
:10032000F5FF01F03DFD00F076F803B4FFF7F2FFB2
:1003300003BC00F07DF800000948804709480047E9
:10034000FEE7FEE7FEE7FEE7FEE7FEE7FEE7FEE785
:10035000FEE7FEE704480549054A064B70470000E2
:100360003D18000899020008C0000024C0060024BF
:10037000C0020024C00200244FF0000200B5134662
:1003800094469646203922BFA0E80C50A0E80C50B5
:10039000B1F12001BFF4F7AF090728BFA0E80C5066
:1003A00048BF0CC05DF804EB890028BF40F8042B5F
:1003B00008BF704748BF20F8022B11F0804F18BFCC
:1003C00000F8012B7047704770477047754600F082
:1003D0002BF8AE4605006946534620F007008546D7
:1003E00018B020B5FFF7B6FFBDE820404FF000067B
:1003F0004FF000074FF000084FF0000B21F007010D
:10040000AC46ACE8C009ACE8C009ACE8C009ACE84F
:10041000C0098D46704710B50446AFF300802046F2
:10042000BDE81040FFF781BF00487047600000241E
:1004300001491820ABBEFEE7260002007047FEE728
:10044000704772B6FEE700002DE9FC4F01257E4C97
:1004500000234FF0030A4FF0B04E4FF00F0BEBE0CC
:1004600005FA03F637403A0077D04F68012F05D0E0
:10047000022F03D0112F01D0122F1AD187684FEA13
:100480004308D1F80CC00AFA08F927EA09070CFA60
:1004900008FC4CEA070CC0F808C0476891F804C093
:1004A000B743CCF3001C0CFA03FC4CEA070CC0F871
:1004B00004C0C6684FEA430CD1F80880E1460AFA46
:1004C0000CF7BE43019708FA09F848EA0608C0F895
:1004D0000C804E68022E01D0122E12D1DE084FEA97
:1004E000437C00EB860600960F69366A4FEADC6CA7
:1004F0000BFA0CF807FA0CF726EA08063743009EB9
:1005000037620E790768DDF804C006F0030606FAC4
:1005100009F627EA0C073E4306604E68F6001CD534
:100520004A4E376847F00207376036689F0706F083
:100530000206009623F0030606F1B046B1463F0FCF
:10054000D6F80864DFF808810BFA07FC404526EA74
:100550000C0603D14FF0000C41E06CE0DFF8F4C072
:10056000604502D14FF0010C39E0DFF8ECC0604586
:1005700002D14FF0020C32E0DFF8E0C0604502D15A
:100580004FF0030C2BE0DFF8D8C0604502D14FF0EC
:10059000040C24E0DFF8CCC0604502D14FF0050C1C
:1005A0001DE0DFF8C4C0604502D14FF0060C16E034
:1005B000DFF8B8C0604502D14FF0070C0FE0DFF85C
:1005C000B0C0604502D14FF0080C08E0DFF8A4C0CD
:1005D000604502D14FF0090C01E04FF00A0C0CFA13
:1005E00007FC4CEA060CC9F808C426684F6826EADE
:1005F0000206FF0300D51643266066684F6826EAA8
:100600000206BF0300D516436660D1F804C07646E3
:10061000DEF800705FEACC2C27EA020700D517430A
:100620003760D1F804C077685FEA8C2C27EA0207AC
:1006300000D5174377605B1C0A681746DA407FF4E1
:100640000FAFBDE8FC8F000080000058F444025852
:10065000000002580004025800080258000C02581A
:10066000001002580014025800180258001C0258CA
:10067000002002580024025801480068000C70470E
:100680000010005C014880687047000000000024F2
:10069000024881680278114481607047000000249C
:1006A000032010B500F078F800F0E0F90F4A104987
:1006B00014681368C4F3032203F00F038A5CC95C57
:1006C00002F01F0201F01F01D0400A4A20FA01F196
:1006D000116009490860002000F010F808B10120FD
:1006E00010BD00F02BF8002010BD00001844025887
:1006F000D21D0008100000240C00002470B50D4D20
:1007000004462878A0B14FF47A71B1FBF0F00A49A1
:100710000968B1FBF0F000F0C9FC48B9102C07D211
:1007200000222146501E00F017F800206C6070BDBA
:10073000012070BD000000240C000024054808B50D
:10074000016841F002010160006800F002000090C1
:1007500008BD0000F44402580E4BF0B41B680D466F
:10076000C3F30223C3F10706042E00D90426191D82
:10077000072901D2002300E0DB1E012404FA06F160
:100780009C40491E2940641E994014402143F0BCFE
:1007900001F0F4BA0CED00E0064900F0070210B5D4
:1007A0004FF6FF040868044B204040EA022018433B
:1007B000086010BD0CED00E00000FA05134970B5AB
:1007C0000A68D243520705D5096801F00701814242
:1007D00013D118E00A6822F0070202430A60FFF70B
:1007E00051FF0A4D4FF47A760446083D07E000BFFA
:1007F000FFF748FF001BB04201D9012070BD2868F7
:10080000C0438004F4D4002070BD00000C4802589E
:100810002DE9F05F04000F467ED0DFF83882D8F86B
:10082000000000F00F00B8420CD2D8F8001021F000
:100830000F013943C8F80010D8F8000000F00F008D
:10084000B84269D12078844D40070AD520692968CB
:1008500001F07001884204D9296821F07001014338
:10086000296020787C4E361D00070AD56069316802
:1008700001F07001884204D9316821F07001014310
:1008800031602078C0060AD5A069316801F4E061C2
:10089000884204D9316821F4E06101433160207855
:1008A000DFF8B4B180060BF1080B0CD5E1695846AE
:1008B000DBF8002002F07002914204D9026822F0B5
:1008C00070020A430260207880070AD5E068296830
:1008D00001F00F01884204D9296821F00F0101437A
:1008E00029602078C0073ED05B49A2682868183983
:1008F00020F47060104328606068022818D0032834
:1009000019D00968012819D0490700294ADADFF807
:1009100048A1AAF1080A00E044E0DAF8002022F039
:1009200007020243CAF80020FFF7ACFE814612E03E
:1009300009688903E9E709688901E6E7C905E4E789
:10094000FFF7A0FEA0EB090141F28830814202D9F5
:100950000320BDE8F09F6168DAF8000000F038007D
:10096000B0EBC10FECD1207880070AD5E068296888
:1009700001F00F01884204D2296821F00F010143E0
:100980002960D8F80010404601F00F01B9420BD998
:10099000016821F00F0139430160006800F00F0089
:1009A000B84201D00120D4E7207840070AD5206959
:1009B000296801F07001884204D2296821F0700191
:1009C00001432960207800070AD56069316801F089
:1009D0007001884204D2316821F070010143316016
:1009E0002078C0060AD5A069316801F4E061884228
:1009F00004D2316821F4E06101433160207880063F
:100A00000CD5E1695846DBF8002002F070029142F3
:100A100004D2026822F070020A43026000F026F855
:100A20000E492A682B68C2F3032203F00F038A5C85
:100A3000C95C02F01F0201F01F01D040084A20FAF1
:100A400001F111600749086007480068BDE8F05FE0
:100A5000FFF754BE0020005218440258D21D00086F
:100A6000100000240C00002404000024454970B547
:100A700045480968434B103B11F0380208D001117A
:100A8000082A03D0102A0BD0182A0BD0084670BDB4
:100A900019688906FBD51968C1F3C101C84070BD4A
:100AA0003A4870BD3749374D18310C1D24350A6856
:100AB000096826682D6802F0030406F00102C1F3FC
:100AC0000511C5F3CC0515FB02F200EE102AB8EEB5
:100AD000400AE9B32F4ADFED2E0AB7EE001A6CB1D7
:100AE000DFED2D1A012C01D0022C43D002EE101A9A
:100AF0001068F8EE422A81EEA22A1EE01C68A406C5
:100B000011D51B6801EE901A1168C3F3C103F8EE0A
:100B1000612AD84001EE900AC1F30800F8EE611A8C
:100B200081EEA22A0BE001EE901ADFED1C2A00BF35
:100B3000F8EE611A106882EEA12AC0F3080001EEF7
:100B4000900AF8EE611A40EE201A31EE810A00E0B8
:100B500015E022EE000A1068C0F34620401C00EEAB
:100B6000900AF8EE600A80EE201ABCEEC10A10EE80
:100B7000100A70BD01EE901ADFED092AD8E70020B7
:100B800070BD0000104402580090D00340787D01F1
:100B900000000039304402580024744A0024744C88
:100BA00020BCBE4B2DE9F05F04007CD0FF4F2078C5
:100BB000FE4D1837DFF8F493103DC00748D0D9F840
:100BC0000000396800F03800102815D0182803D12B
:100BD00001F0030002280FD06068B0F5803F12D00A
:100BE00010B1B0F5A02F18D0286820F4803028600C
:100BF000286820F4802009E02868800328D56068F0
:100C00000028D2D024E0286840F480302860606852
:100C100088B1FFF737FD064609E0286840F48020D8
:100C20002860F0E7FFF72EFD801B64287ED8286837
:100C30008003F7D50CE0FFF725FD064605E000BF71
:100C4000FFF720FD801B6428F0D828688003F7D4C4
:100C5000207841F20308D54E0C3E800753D5D9F8D1
:100C60000000396810F038000ED0182801D188072C
:100C70000AD0E068A8B3296821F01901014329606E
:100C8000FFF700FD82461BE02868400702D5E068B8
:100C900000288AD0FFF7F0FC40451BD82069402887
:100CA00012D0316800E0CCE021F47C3141EA003020
:100CB000306028E0FFF7E6FCA0EB0A000228B5D878
:100CC00028684007F6D5E5E7306820F47C3040F42A
:100CD0000030EDE7207C316821F0FE4141EA006000
:100CE000E6E7FFE7286820F001002860FFF7CAFC6C
:100CF000824605E0FFF7C6FCA0EB0A00022895D863
:100D000028684007F6D42078C0065FD5D9F80000DF
:100D1000DFF898B2396800F03800ABF1040B08280E
:100D200012D0182805D101F0030000E0EAE0012804
:100D30000AD0E0690028286838D040F08000286098
:100D4000FFF7A0FC824623E02868C00523D5E069B0
:100D5000802876D11FE0206A202821D0316821F038
:100D6000F84141EA8060306030E000BF94F8201024
:100D7000DBF8002022F07C5242EA0161CBF800103F
:100D800024E000BFFFF77EFCA0EB0A00022896D803
:100D90002868C005F6D5FFF76FFC4045E6D8DAE7CE
:100DA000306820F0F84040F08040DCE720F0800020
:100DB0002860FFF767FC064605E000BFFFF762FC0E
:100DC000801B02289BD82868C005F7D4207800072C
:100DD00029D576486169643000298046016811D0C0
:100DE00041F001010160FFF74DFC064605E000BF40
:100DF000FFF748FC801B0228C9D8D8F800008007FC
:100E0000F6D510E021F001010160FFF73BFC06463A
:100E100005E000BFFFF736FC801B022872D8D8F827
:100E200000008007F6D42078800623D5A06900282A
:100E3000286810D040F480502860FFF723FC064655
:100E400005E02CE1FFF71EFC801B02285AD8286819
:100E50008004F7D50EE020F480502860FFF712FCE4
:100E6000064604E0FFF70EFC801B02284AD82868DB
:100E70008004F7D4207840074FD5DFF83481D8F8C4
:100E8000001041F48071C8F80010FFF7FBFB064624
:100E900005E000BFFFF7F6FB801B642832D8D8F8C6
:100EA0000000C005F6D5414EA068603601280AD082
:100EB00008B1052813D0306820F001003060306898
:100EC00020F0040002E0306840F001003060A068CB
:100ED00041F2883A90B1FFF7D5FB80460AE03068CE
:100EE00040F004003060EEE7FFF7CCFBA0EB080118
:100EF000514507D830688007F6D50EE0FFF7C2FBF2
:100F0000804607E084E000BFFFF7BCFBA0EB0801D0
:100F100051457DD830688007F6D4606AF0B3DFF8B9
:100F20008C80D9F8001008F12008C1F3C201032910
:100F30006FD00228286820F08070286003D0FFF767
:100F4000A1FB044680E0FFF79DFB064605E000BFDD
:100F5000FFF798FB801B022873D828688001F7D41C
:100F6000E26A40F2F331386854F8283F884340EA97
:100F7000021018433860217B4FF4FE0C22894FF099
:100F8000FE47208A4902267D521E401EA1F50071AF
:100F900089B20CEA0040C2F3080200E081E011438C
:100FA000761E0143014807EA066203E01044025836
:100FB000004802581C3011433B4AC8F80010016831
:100FC00021F00101016011684FF6F876236AB14300
:100FD00041EAC30111600168A26921F00C011143CB
:100FE00001600168E26921F00201114301600168BA
:100FF00041F480310160016841F400310160016811
:1010000041F480210160016841F00101016001E0CB
:1010100017E01DE0286840F080702860FFF732FB81
:10102000044604E0FFF72EFB001B022809D82868BD
:101030008001F7D535E000BFFFF724FB001B022835
:1010400002D90320BDE8F09F28688001F4D428E08D
:1010500039680128D8F8000021D0A26A01F0030302
:1010600093421CD1E26AC1F305118A4217D1216B68
:10107000C0F30802491E8A4211D1616BC0F34622B7
:10108000491E91420BD1A16BC0F30642491E914209
:1010900005D1E16BC0F30660491E814201D00120F9
:1010A000D0E70020CEE7000034440258401EB0F1E3
:1010B000807F10B501D3012010BD4FF0E0246061A6
:1010C0000F21601700F05AFE0020A0610721216166
:1010D00010BD00002DE9F04390F83C20012A42D0D9
:1010E000012280F83C2051F80C4BDFF880804FF053
:1010F000000991E8680051E9022723F44073B1F830
:101100000CC03B43CF6923F480631343026823F48C
:101110000063234323F4805343EA050323F400537D
:1011200043EA060323F4804343EA07030C3923F41C
:101130007023424543EA0C4302D00D4CA2420CD12D
:101140008D8C23F47006D1E9073446EA055121F06D
:101150008071194321F000732343536480F83C905D
:101160000020BDE8F0830220FBE700000000014002
:1011700000040140F0B590F83C20012A38D01D4E03
:10118000012480F83C40022280F83D2002681A4D7C
:101190005368B242D2F808C001D0AA4203D14F68C6
:1011A00023F470033B430F6823F070031F43576021
:1011B0000268B24210D0B2F1804F0DD00F4B9A426C
:1011C0000AD00F4B9A4207D00E4B9A4204D0AA4243
:1011D00002D00D4B9A4204D189682CF08003194348
:1011E0009160002180F83D4080F83C100846F0BD39
:1011F0000220F0BD00000140000401400004004056
:1012000000080040000C00400018004010B5040029
:1012100003D094F83D0010B107E0012010BD00207C
:1012200084F83C00204600F023F8022084F83D00BA
:101230002068211D00F074FB012084F8480084F828
:101240003E0084F83F0084F8400084F8410084F8B0
:10125000420084F8430084F8440084F8450084F890
:10126000460084F8470084F83D00002010BD0000CF
:1012700008B500680649884208D10648016841F06F
:1012800001010160006800F00100009008BD00004D
:1012900000000140F044025870B5044690F83C004C
:1012A000012814D0394B012584F83C50022084F8E1
:1012B0003D0022689068184020F47F4090600868E4
:1012C000702828D010DC10F00F0F03D04BE04FF047
:1012D000020070BD4FEA2012072A44D2DFE802F074
:1012E0005151515149323A00B0F1101F49D009DC37
:1012F000B0F5805F37D0B0F5005F17D0B0F5801F34
:1013000031D13EE0A0F5801120393AD0102938D0F3
:10131000202928D135E04A682068D1E9021300F07D
:101320006EFB2068816841F0770109E04A68206817
:10133000D1E9021300F063FB2068816841F4804129
:10134000816010E0CA684968206800F0F3FC2068FA
:10135000502106E0CA684968206800F0FCFC20685B
:10136000602100F055FB002084F83D5084F83C00DB
:1013700070BDCA684968206800F0DCFC2068402124
:10138000EFE7226801461046EBE7000088FFCEFF3A
:1013900010B586B0044614216846FEF7EDFF0E49ED
:1013A0002068884216D10D48016841F010010160A3
:1013B00000680123022200F01000059000204FF485
:1013C000007100916946CDE90120CDE9030304488D
:1013D000FFF73AF806B010BD00000140E0440258A3
:1013E0000010025870B5044690F83C000D460128E4
:1013F0000BD0012084F83C000C2A45D007DC5AB100
:10140000042A1BD0082A78D12CE0022070BD102AB3
:101410004ED0142A71D15DE0206800F003FB2068F3
:10142000816941F0080181612068816921F004012E
:10143000816120682A698169114311E0206800F008
:1014400045FB2068816941F4006181612068816900
:1014500021F48061816120682969826942EA012161
:1014600081614AE0206800F07DFB2068C16941F09D
:101470000801C1612068C16921F00401C1612068CF
:101480002A69C169114311E0206800F0B1FB2068AE
:10149000C16941F40061C1612068C16921F48061C2
:1014A000C16120682969C26942EA0121C16124E061
:1014B000206800F0D3FB2068416D41F008014165D0
:1014C0002068416D21F00401416520682A69416D61
:1014D000114311E0206800F0F7FB2068416D41F4F2
:1014E000006141652068416D21F48061416520689B
:1014F0002969426D42EA01214165002084F83C00DF
:1015000070BD10B5040003D094F83D0010B107E0A1
:10151000012010BD002084F83C00204600F022F895
:10152000022084F83D002068211D00F0F9F9012017
:1015300084F8480084F83E0084F83F0084F84000B6
:1015400084F8410084F8420084F8430084F84400A1
:1015500084F8450084F8460084F8470084F83D008C
:10156000002010BD7047000010B504464FF0020285
:1015700069B1042912D0082917D00C291CD01029D0
:1015800021D094F84300012824D0012010BD94F804
:101590003E000128F9D184F83E201DE094F83F0078
:1015A0000128F2D184F83F2016E094F84000012889
:1015B000EBD184F840200FE094F841000128E4D1F9
:1015C00084F8412008E094F842000128DDD184F835
:1015D000422001E084F843200122206800F002FA52
:1015E0001A4920681A4A88420AD0904208D0194BFA
:1015F000984205D0184B984202D0184B984203D11C
:10160000436C43F4004343642068884210D0B0F137
:10161000804F0DD0124988420AD01249884207D023
:101620001149884204D0904202D01049884207D123
:1016300081680F4A1140062906D0B1F5803F03D0DA
:10164000016841F001010160002010BD000001406F
:1016500000040140004001400044014000480140B6
:101660000004004000080040000C0040001800404A
:1016700007000100FEE700000D4808B5016841F0D1
:1016800004010160016801F004010091016841F06A
:1016900080010160016801F080010091016841F062
:1016A00010010160006800F01000009008BD00000B
:1016B000E044025810B59AB000241C21009412A8EE
:1016C000019402940394049405940694FEF754FE46
:1016D0002C2107A8FEF750FE2A480522284904239A
:1016E00080E81600C0E9033444618461FFF78EFD91
:1016F00008B1FEF7A6FE4FF48050009021486946DD
:10170000FFF7CAFD08B1FEF79CFE1E48FFF7F9FE81
:1017100008B1FEF796FE1B4804A9049405940694AC
:10172000FFF728FD08B1FEF78CFE60201494CDE988
:1017300012041448002212A91594169417941894B0
:10174000FFF750FE08B1FEF77CFE4FF400500794FF
:101750000894099401030A94CDE90B40CDE90E41A8
:10176000084807A90D9410941194FFF7B3FC08B131
:10177000FEF767FE0348FFF70BFE1AB010BD00002E
:101780000000014014000024FEE7FEE770477047A8
:10179000FEF77EBF70B59CB04C216846FEF7ECFDAD
:1017A000202113A8FEF7E8FD0220FFF707F82148E3
:1017B00000242149026842F44042026002680A683B
:1017C00042F001020A60096801F001011B91016801
:1017D0008904FCD50DF1280C022009900521C022B6
:1017E0008CE80700C6030F9008250D9001230E908A
:1017F000CDE91054CDE9003668461294FFF7D2F9CE
:1018000008B172B6FEE740201A903F210301CDE9EE
:1018100016500322CDE9180313AB13A883E8160072
:101820000421FEF7F5FF002801D072B6FEE71CB0D8
:1018300070BD0000184802582C0400582E48F0B51E
:101840002E4A016841F470010160106800F00F0039
:10185000072804D2106820F00F00C01D106028492E
:101860000020274C10340B68264D43F001030B6019
:1018700020600B682B400B60136803F00F03072BED
:1018800004D9136823F00F03DB1D13601C4C1E4AA0
:1018900018341E4B261D371D2060194C1C4D283452
:1018A0003060261D3860371D23603B1D35601C1DD0
:1018B0003A60251D2E1D1860331D2260286032609D
:1018C00018600A680E4B134C22F4802260330A60C1
:1018D000186020686FF30F00B0F1005F03D20E496B
:1018E0000120C1F8080143F2D2000C49024B4A031F
:1018F000803B08601A60F0BD88ED00E000200052D7
:10190000004402587FEDF6EA800201010002020263
:101910000000FF010010005C0080005100400052F8
:101920002DE9F047274B4FF0804A274D0268984237
:10193000264E274F274C09D0504507D0A84205D046
:10194000B04203D0B84201D0A04205D1D1F804C0C2
:1019500022F070024CEA0202DFF87CC0DFF87C80E3
:101960009842DFF87C900FD050450DD0A8420BD0A4
:10197000B04209D0B84207D0A04205D0604503D09C
:10198000404501D0484503D1CD6822F440722A4336
:101990004D6922F080022A43026098428A68C2623E
:1019A0000A68826207D0A04205D0604503D0404556
:1019B00001D0484501D10969016301214161BDE8B8
:1019C000F0870000000001400004004000080040D3
:1019D000000C004000040140004001400044014070
:1019E0000048014010B5046A012301F01F018B403B
:1019F0009C4304628A40016A1143016210BD42EABD
:101A0000032283680A4323F47F410A4382607047BC
:101A1000034B82681A400A4342F007018160704715
:101A20008FFFCFFF2DE9F04F026ADFF88880DFF8E3
:101A3000889022F00102DFF884A0DFF884B0214F03
:101A40000262DFF884C0066A4268836926F00206F3
:101A50000D68B8428C6803EA0C0323F0030344EAE0
:101A6000060445EA030507D0404505D0484503D0A4
:101A7000504501D0584505D1CB6824F008042343D4
:101A800023F00404B84207D0404505D0484503D0B0
:101A9000504501D0584505D122F44076D1E90532B0
:101AA00033431A4342608561496841630462BDE87B
:101AB000F08F00000004014000400140004401405C
:101AC00000480140000001408FFFFEFFF0B5026AB0
:101AD0001E4E1F4C22F01002DFF878E00262056A09
:101AE0004368826925F02005D1F808C0A0420F683C
:101AF00002EA060222F4407245EA0C1542EA072285
:101B000001D0704506D1CE6825F0800545EA06155E
:101B100025F04005A0420AD0704508D00E4CA042E6
:101B200005D00E4CA04202D00D4CA04207D1D1E905
:101B3000054623F4406343EA840343EA8603436093
:101B40008261496881630562F0BD0000FF8FFFFE7E
:101B500000000140000401400040014000440140F9
:101B600000480140F0B5026A1C4D1D4E22F48072FF
:101B7000A8420262026A4368C76922F40072D1F87F
:101B800008C00C6827F0730742EA0C2244EA0704F5
:101B900001D0B04206D1CF6822F4006242EA0722A7
:101BA00022F48062A8420AD0B04208D00D4DA8426B
:101BB00005D00D4DA84202D00C4DA84207D1D1E965
:101BC000055623F4405343EA051343EA06134360E2
:101BD000C4614968C1630262F0BD000000000140B9
:101BE0000004014000400140004401400048014021
:101BF00070B5026A144B22F4805202629842036A62
:101C00004268C46923F400538E680D6824F4E644E6
:101C100043EA063344EA05240BD00C4DA84208D011
:101C20000B4DA84205D00B4DA84202D00A4DA84248
:101C300004D14D6922F4804242EA85124260C461B7
:101C400049680164036270BD000001400004014066
:101C5000004001400044014000480140F0B5026AE4
:101C600022F480320262134F056A4268446D25F403
:101C700000350E89B8420B6824F0700445EA064529
:101C800043EA04030BD00C4CA04208D00B4CA042FA
:101C900005D00B4CA04202D00A4CA04204D14C69A2
:101CA00022F4803242EA0422426043654968816539
:101CB0000562F0BD00000140000401400040014009
:101CC0000044014000480140F0B5026A22F480124D
:101CD0000262134F046A4268436D24F400140E89B3
:101CE000B8420D6823F4E04344EA065443EA05236E
:101CF0000BD00C4DA84208D00B4DA84205D00B4D7F
:101D0000A84202D00A4DA84204D14D6922F4003203
:101D100042EA8522426043654968C1650462F0BDBC
:101D20000000014000040140004001400044014027
:101D30000048014010B5036A046A23F00A0324F046
:101D40000104046284690B4324F0F00141EA0211AA
:101D50008161036210BD10B5036A23F010030362B2
:101D60008369046A23F4704324F0A00443EA023236
:101D7000826144EA0111016210BDFEE709070028F3
:101D80004FEA116104DB00F1E02080F80014704795
:101D900000F00F0000F1E02080F8141D70470000F3
:101DA000FEF77EFCFFF7F6FCFFF766FCFFF782FC10
:101DB00004480021FFF7D8FB02480168022048636D
:101DC000FEE70000140000244FF04070E1EE100A1E
:101DD000704700000000010203040102030406072B
:101DE00008090000041E0008000000241400000080
:101DF000D4020008181E000814000024AC060000DD
:101E0000F0020008010000001000000000000000C7
:081E10000090D0030090D00304
:040000050800029954
:00000001FF
